{
  "address": "0x1675a0b98dEF90Cda1d8503DDBdb3059C808122F",
  "abi": [
    {
      "inputs": [
        {
          "internalType": "address",
          "name": "_VRFCoordinator",
          "type": "address"
        },
        {
          "internalType": "address",
          "name": "_LinkToken",
          "type": "address"
        },
        {
          "internalType": "bytes32",
          "name": "_keyhash",
          "type": "bytes32"
        },
        {
          "internalType": "uint256",
          "name": "_fee",
          "type": "uint256"
        }
      ],
      "stateMutability": "nonpayable",
      "type": "constructor"
    },
    {
      "anonymous": false,
      "inputs": [
        {
          "indexed": true,
          "internalType": "address",
          "name": "owner",
          "type": "address"
        },
        {
          "indexed": true,
          "internalType": "address",
          "name": "approved",
          "type": "address"
        },
        {
          "indexed": true,
          "internalType": "uint256",
          "name": "tokenId",
          "type": "uint256"
        }
      ],
      "name": "Approval",
      "type": "event"
    },
    {
      "anonymous": false,
      "inputs": [
        {
          "indexed": true,
          "internalType": "address",
          "name": "owner",
          "type": "address"
        },
        {
          "indexed": true,
          "internalType": "address",
          "name": "operator",
          "type": "address"
        },
        {
          "indexed": false,
          "internalType": "bool",
          "name": "approved",
          "type": "bool"
        }
      ],
      "name": "ApprovalForAll",
      "type": "event"
    },
    {
      "anonymous": false,
      "inputs": [
        {
          "indexed": true,
          "internalType": "uint256",
          "name": "tokenId",
          "type": "uint256"
        },
        {
          "indexed": false,
          "internalType": "string",
          "name": "tokenURI",
          "type": "string"
        }
      ],
      "name": "CreatedRandomSVG",
      "type": "event"
    },
    {
      "anonymous": false,
      "inputs": [
        {
          "indexed": true,
          "internalType": "uint256",
          "name": "tokenId",
          "type": "uint256"
        },
        {
          "indexed": false,
          "internalType": "uint256",
          "name": "randomNumber",
          "type": "uint256"
        }
      ],
      "name": "CreatedUnfinishedRandomSVG",
      "type": "event"
    },
    {
      "anonymous": false,
      "inputs": [
        {
          "indexed": true,
          "internalType": "address",
          "name": "previousOwner",
          "type": "address"
        },
        {
          "indexed": true,
          "internalType": "address",
          "name": "newOwner",
          "type": "address"
        }
      ],
      "name": "OwnershipTransferred",
      "type": "event"
    },
    {
      "anonymous": false,
      "inputs": [
        {
          "indexed": true,
          "internalType": "address",
          "name": "from",
          "type": "address"
        },
        {
          "indexed": true,
          "internalType": "address",
          "name": "to",
          "type": "address"
        },
        {
          "indexed": true,
          "internalType": "uint256",
          "name": "tokenId",
          "type": "uint256"
        }
      ],
      "name": "Transfer",
      "type": "event"
    },
    {
      "anonymous": false,
      "inputs": [
        {
          "indexed": true,
          "internalType": "bytes32",
          "name": "requestId",
          "type": "bytes32"
        },
        {
          "indexed": true,
          "internalType": "uint256",
          "name": "tokenId",
          "type": "uint256"
        }
      ],
      "name": "requestedRandomSVG",
      "type": "event"
    },
    {
      "inputs": [
        {
          "internalType": "address",
          "name": "to",
          "type": "address"
        },
        {
          "internalType": "uint256",
          "name": "tokenId",
          "type": "uint256"
        }
      ],
      "name": "approve",
      "outputs": [],
      "stateMutability": "nonpayable",
      "type": "function"
    },
    {
      "inputs": [
        {
          "internalType": "address",
          "name": "owner",
          "type": "address"
        }
      ],
      "name": "balanceOf",
      "outputs": [
        {
          "internalType": "uint256",
          "name": "",
          "type": "uint256"
        }
      ],
      "stateMutability": "view",
      "type": "function"
    },
    {
      "inputs": [
        {
          "internalType": "uint256",
          "name": "",
          "type": "uint256"
        }
      ],
      "name": "colors",
      "outputs": [
        {
          "internalType": "string",
          "name": "",
          "type": "string"
        }
      ],
      "stateMutability": "view",
      "type": "function"
    },
    {
      "inputs": [],
      "name": "create",
      "outputs": [
        {
          "internalType": "bytes32",
          "name": "requestId",
          "type": "bytes32"
        }
      ],
      "stateMutability": "nonpayable",
      "type": "function"
    },
    {
      "inputs": [
        {
          "internalType": "uint256",
          "name": "tokenId",
          "type": "uint256"
        }
      ],
      "name": "finishMint",
      "outputs": [],
      "stateMutability": "nonpayable",
      "type": "function"
    },
    {
      "inputs": [
        {
          "internalType": "string",
          "name": "imageURI",
          "type": "string"
        }
      ],
      "name": "formatTokenURI",
      "outputs": [
        {
          "internalType": "string",
          "name": "",
          "type": "string"
        }
      ],
      "stateMutability": "pure",
      "type": "function"
    },
    {
      "inputs": [
        {
          "internalType": "uint256",
          "name": "_randomness",
          "type": "uint256"
        }
      ],
      "name": "generatePath",
      "outputs": [
        {
          "internalType": "string",
          "name": "pathSvg",
          "type": "string"
        }
      ],
      "stateMutability": "view",
      "type": "function"
    },
    {
      "inputs": [
        {
          "internalType": "uint256",
          "name": "_randomness",
          "type": "uint256"
        }
      ],
      "name": "generatePathCommand",
      "outputs": [
        {
          "internalType": "string",
          "name": "pathCommand",
          "type": "string"
        }
      ],
      "stateMutability": "view",
      "type": "function"
    },
    {
      "inputs": [
        {
          "internalType": "uint256",
          "name": "_randomness",
          "type": "uint256"
        }
      ],
      "name": "generateSVG",
      "outputs": [
        {
          "internalType": "string",
          "name": "finalSvg",
          "type": "string"
        }
      ],
      "stateMutability": "view",
      "type": "function"
    },
    {
      "inputs": [
        {
          "internalType": "uint256",
          "name": "tokenId",
          "type": "uint256"
        }
      ],
      "name": "getApproved",
      "outputs": [
        {
          "internalType": "address",
          "name": "",
          "type": "address"
        }
      ],
      "stateMutability": "view",
      "type": "function"
    },
    {
      "inputs": [
        {
          "internalType": "address",
          "name": "owner",
          "type": "address"
        },
        {
          "internalType": "address",
          "name": "operator",
          "type": "address"
        }
      ],
      "name": "isApprovedForAll",
      "outputs": [
        {
          "internalType": "bool",
          "name": "",
          "type": "bool"
        }
      ],
      "stateMutability": "view",
      "type": "function"
    },
    {
      "inputs": [],
      "name": "maxNumberOfPathCommands",
      "outputs": [
        {
          "internalType": "uint256",
          "name": "",
          "type": "uint256"
        }
      ],
      "stateMutability": "view",
      "type": "function"
    },
    {
      "inputs": [],
      "name": "maxNumberOfPaths",
      "outputs": [
        {
          "internalType": "uint256",
          "name": "",
          "type": "uint256"
        }
      ],
      "stateMutability": "view",
      "type": "function"
    },
    {
      "inputs": [],
      "name": "name",
      "outputs": [
        {
          "internalType": "string",
          "name": "",
          "type": "string"
        }
      ],
      "stateMutability": "view",
      "type": "function"
    },
    {
      "inputs": [],
      "name": "owner",
      "outputs": [
        {
          "internalType": "address",
          "name": "",
          "type": "address"
        }
      ],
      "stateMutability": "view",
      "type": "function"
    },
    {
      "inputs": [
        {
          "internalType": "uint256",
          "name": "tokenId",
          "type": "uint256"
        }
      ],
      "name": "ownerOf",
      "outputs": [
        {
          "internalType": "address",
          "name": "",
          "type": "address"
        }
      ],
      "stateMutability": "view",
      "type": "function"
    },
    {
      "inputs": [
        {
          "internalType": "uint256",
          "name": "",
          "type": "uint256"
        }
      ],
      "name": "pathCommands",
      "outputs": [
        {
          "internalType": "string",
          "name": "",
          "type": "string"
        }
      ],
      "stateMutability": "view",
      "type": "function"
    },
    {
      "inputs": [
        {
          "internalType": "bytes32",
          "name": "requestId",
          "type": "bytes32"
        },
        {
          "internalType": "uint256",
          "name": "randomness",
          "type": "uint256"
        }
      ],
      "name": "rawFulfillRandomness",
      "outputs": [],
      "stateMutability": "nonpayable",
      "type": "function"
    },
    {
      "inputs": [],
      "name": "renounceOwnership",
      "outputs": [],
      "stateMutability": "nonpayable",
      "type": "function"
    },
    {
      "inputs": [
        {
          "internalType": "bytes32",
          "name": "",
          "type": "bytes32"
        }
      ],
      "name": "requestIdToSender",
      "outputs": [
        {
          "internalType": "address",
          "name": "",
          "type": "address"
        }
      ],
      "stateMutability": "view",
      "type": "function"
    },
    {
      "inputs": [
        {
          "internalType": "bytes32",
          "name": "",
          "type": "bytes32"
        }
      ],
      "name": "requestIdToTokenId",
      "outputs": [
        {
          "internalType": "uint256",
          "name": "",
          "type": "uint256"
        }
      ],
      "stateMutability": "view",
      "type": "function"
    },
    {
      "inputs": [
        {
          "internalType": "address",
          "name": "from",
          "type": "address"
        },
        {
          "internalType": "address",
          "name": "to",
          "type": "address"
        },
        {
          "internalType": "uint256",
          "name": "tokenId",
          "type": "uint256"
        }
      ],
      "name": "safeTransferFrom",
      "outputs": [],
      "stateMutability": "nonpayable",
      "type": "function"
    },
    {
      "inputs": [
        {
          "internalType": "address",
          "name": "from",
          "type": "address"
        },
        {
          "internalType": "address",
          "name": "to",
          "type": "address"
        },
        {
          "internalType": "uint256",
          "name": "tokenId",
          "type": "uint256"
        },
        {
          "internalType": "bytes",
          "name": "_data",
          "type": "bytes"
        }
      ],
      "name": "safeTransferFrom",
      "outputs": [],
      "stateMutability": "nonpayable",
      "type": "function"
    },
    {
      "inputs": [
        {
          "internalType": "address",
          "name": "operator",
          "type": "address"
        },
        {
          "internalType": "bool",
          "name": "approved",
          "type": "bool"
        }
      ],
      "name": "setApprovalForAll",
      "outputs": [],
      "stateMutability": "nonpayable",
      "type": "function"
    },
    {
      "inputs": [],
      "name": "size",
      "outputs": [
        {
          "internalType": "uint256",
          "name": "",
          "type": "uint256"
        }
      ],
      "stateMutability": "view",
      "type": "function"
    },
    {
      "inputs": [
        {
          "internalType": "bytes4",
          "name": "interfaceId",
          "type": "bytes4"
        }
      ],
      "name": "supportsInterface",
      "outputs": [
        {
          "internalType": "bool",
          "name": "",
          "type": "bool"
        }
      ],
      "stateMutability": "view",
      "type": "function"
    },
    {
      "inputs": [
        {
          "internalType": "string",
          "name": "svg",
          "type": "string"
        }
      ],
      "name": "svgToImageURI",
      "outputs": [
        {
          "internalType": "string",
          "name": "",
          "type": "string"
        }
      ],
      "stateMutability": "pure",
      "type": "function"
    },
    {
      "inputs": [],
      "name": "symbol",
      "outputs": [
        {
          "internalType": "string",
          "name": "",
          "type": "string"
        }
      ],
      "stateMutability": "view",
      "type": "function"
    },
    {
      "inputs": [],
      "name": "tokenCounter",
      "outputs": [
        {
          "internalType": "uint256",
          "name": "",
          "type": "uint256"
        }
      ],
      "stateMutability": "view",
      "type": "function"
    },
    {
      "inputs": [
        {
          "internalType": "uint256",
          "name": "",
          "type": "uint256"
        }
      ],
      "name": "tokenIdToRandomNumber",
      "outputs": [
        {
          "internalType": "uint256",
          "name": "",
          "type": "uint256"
        }
      ],
      "stateMutability": "view",
      "type": "function"
    },
    {
      "inputs": [
        {
          "internalType": "uint256",
          "name": "tokenId",
          "type": "uint256"
        }
      ],
      "name": "tokenURI",
      "outputs": [
        {
          "internalType": "string",
          "name": "",
          "type": "string"
        }
      ],
      "stateMutability": "view",
      "type": "function"
    },
    {
      "inputs": [
        {
          "internalType": "address",
          "name": "from",
          "type": "address"
        },
        {
          "internalType": "address",
          "name": "to",
          "type": "address"
        },
        {
          "internalType": "uint256",
          "name": "tokenId",
          "type": "uint256"
        }
      ],
      "name": "transferFrom",
      "outputs": [],
      "stateMutability": "nonpayable",
      "type": "function"
    },
    {
      "inputs": [
        {
          "internalType": "address",
          "name": "newOwner",
          "type": "address"
        }
      ],
      "name": "transferOwnership",
      "outputs": [],
      "stateMutability": "nonpayable",
      "type": "function"
    },
    {
      "inputs": [],
      "name": "withdraw",
      "outputs": [],
      "stateMutability": "payable",
      "type": "function"
    }
  ],
  "transactionHash": "0xdc8cf69a9541a15e8a802fb08b011919de3ab1d87cca65de2a4ea0985f2b2dc1",
  "args": [
    "0xb3dCcb4Cf7a26f6cf6B120Cf5A73875B7BBc655B",
    "0x01be23585060835e02b77ef475b0cc51aa1e0709",
    "0x2ed0feb3e7fd2022120aa84fab1945545a9f2ffc9076fd6156fa96eaff4c1311",
    "100000000000000000"
  ],
  "solcInputHash": "38565ff11add86ba8cf71cc0d6696062",
  "bytecode": "0x60c06040523480156200001157600080fd5b5060405162005806380380620058068339818101604052810190620000379190620006b1565b83836040518060400160405280600981526020017f52616e646f6d53564700000000000000000000000000000000000000000000008152506040518060400160405280600581526020017f72734e46540000000000000000000000000000000000000000000000000000008152508160009080519060200190620000bd92919062000480565b508060019080519060200190620000d692919062000480565b5050508173ffffffffffffffffffffffffffffffffffffffff1660a08173ffffffffffffffffffffffffffffffffffffffff1660601b815250508073ffffffffffffffffffffffffffffffffffffffff1660808173ffffffffffffffffffffffffffffffffffffffff1660601b815250505050620001696200015d620003b260201b60201c565b620003ba60201b60201c565b600060098190555081600d8190555080600e81905550600a600f8190555060056010819055506101f460118190555060405180604001604052806040518060400160405280600181526020017f4d0000000000000000000000000000000000000000000000000000000000000081525081526020016040518060400160405280600181526020017f4c0000000000000000000000000000000000000000000000000000000000000081525081525060129060026200022992919062000511565b506040518060c001604052806040518060400160405280600381526020017f726564000000000000000000000000000000000000000000000000000000000081525081526020016040518060400160405280600481526020017f626c75650000000000000000000000000000000000000000000000000000000081525081526020016040518060400160405280600581526020017f677265656e00000000000000000000000000000000000000000000000000000081525081526020016040518060400160405280600681526020017f79656c6c6f77000000000000000000000000000000000000000000000000000081525081526020016040518060400160405280600581526020017f626c61636b00000000000000000000000000000000000000000000000000000081525081526020016040518060400160405280600581526020017f77686974650000000000000000000000000000000000000000000000000000008152508152506013906006620003a792919062000578565b505050505062000818565b600033905090565b6000600860009054906101000a900473ffffffffffffffffffffffffffffffffffffffff16905081600860006101000a81548173ffffffffffffffffffffffffffffffffffffffff021916908373ffffffffffffffffffffffffffffffffffffffff1602179055508173ffffffffffffffffffffffffffffffffffffffff168173ffffffffffffffffffffffffffffffffffffffff167f8be0079c531659141344cd1fd0a4f28419497f9722a3daafe3b4186f6b6457e060405160405180910390a35050565b8280546200048e9062000765565b90600052602060002090601f016020900481019282620004b25760008555620004fe565b82601f10620004cd57805160ff1916838001178555620004fe565b82800160010185558215620004fe579182015b82811115620004fd578251825591602001919060010190620004e0565b5b5090506200050d9190620005df565b5090565b82805482825590600052602060002090810192821562000565579160200282015b82811115620005645782518290805190602001906200055392919062000480565b509160200191906001019062000532565b5b509050620005749190620005fe565b5090565b828054828255906000526020600020908101928215620005cc579160200282015b82811115620005cb578251829080519060200190620005ba92919062000480565b509160200191906001019062000599565b5b509050620005db9190620005fe565b5090565b5b80821115620005fa576000816000905550600101620005e0565b5090565b5b8082111562000622576000818162000618919062000626565b50600101620005ff565b5090565b508054620006349062000765565b6000825580601f1062000648575062000669565b601f016020900490600052602060002090810190620006689190620005df565b5b50565b6000815190506200067d81620007ca565b92915050565b6000815190506200069481620007e4565b92915050565b600081519050620006ab81620007fe565b92915050565b60008060008060808587031215620006c857600080fd5b6000620006d8878288016200066c565b9450506020620006eb878288016200066c565b9350506040620006fe8782880162000683565b925050606062000711878288016200069a565b91505092959194509250565b60006200072a826200073b565b9050919050565b6000819050919050565b600073ffffffffffffffffffffffffffffffffffffffff82169050919050565b6000819050919050565b600060028204905060018216806200077e57607f821691505b602082108114156200079557620007946200079b565b5b50919050565b7f4e487b7100000000000000000000000000000000000000000000000000000000600052602260045260246000fd5b620007d5816200071d565b8114620007e157600080fd5b50565b620007ef8162000731565b8114620007fb57600080fd5b50565b62000809816200075b565b81146200081557600080fd5b50565b60805160601c60a05160601c614fbb6200084b6000396000818161148f0152612a12015260006129d60152614fbb6000f3fe6080604052600436106101f95760003560e01c806371aee1931161010d578063b88d4fde116100a0578063c87b56dd1161006f578063c87b56dd14610796578063d082e381146107d3578063e985e9c5146107fe578063efc81a8c1461083b578063f2fde38b14610866576101f9565b8063b88d4fde146106c8578063bd11f69d146106f1578063c21bf36f1461072e578063c68b49d114610759576101f9565b8063955968d4116100dc578063955968d4146105fa57806395d89b41146106375780639c1cd79514610662578063a22cb4651461069f576101f9565b806371aee1931461053e5780638da5cb5b1461057b57806394985ddd146105a6578063949d225d146105cf576101f9565b806333af598911610190578063624194c71161015f578063624194c7146104475780636352211e146104705780636dcee4ca146104ad57806370a08231146104ea578063715018a614610527576101f9565b806333af5989146103ac5780633ccfd60b146103e957806342842e0e146103f357806348e896ab1461041c576101f9565b8063219c0eee116101cc578063219c0eee146102cc57806322881f881461030957806323b872dd1461034657806330d871c61461036f576101f9565b806301ffc9a7146101fe57806306fdde031461023b578063081812fc14610266578063095ea7b3146102a3575b600080fd5b34801561020a57600080fd5b5061022560048036038101906102209190613581565b61088f565b6040516102329190613e49565b60405180910390f35b34801561024757600080fd5b50610250610971565b60405161025d9190613eed565b60405180910390f35b34801561027257600080fd5b5061028d60048036038101906102889190613614565b610a03565b60405161029a9190613da4565b60405180910390f35b3480156102af57600080fd5b506102ca60048036038101906102c591906134b7565b610a88565b005b3480156102d857600080fd5b506102f360048036038101906102ee919061351c565b610ba0565b6040516103009190613da4565b60405180910390f35b34801561031557600080fd5b50610330600480360381019061032b919061351c565b610bd3565b60405161033d91906141cf565b60405180910390f35b34801561035257600080fd5b5061036d600480360381019061036891906133b1565b610beb565b005b34801561037b57600080fd5b50610396600480360381019061039191906135d3565b610c4b565b6040516103a39190613eed565b60405180910390f35b3480156103b857600080fd5b506103d360048036038101906103ce9190613614565b610cde565b6040516103e09190613eed565b60405180910390f35b6103f1610eca565b005b3480156103ff57600080fd5b5061041a600480360381019061041591906133b1565b610f96565b005b34801561042857600080fd5b50610431610fb6565b60405161043e91906141cf565b60405180910390f35b34801561045357600080fd5b5061046e60048036038101906104699190613614565b610fbc565b005b34801561047c57600080fd5b5061049760048036038101906104929190613614565b611125565b6040516104a49190613da4565b60405180910390f35b3480156104b957600080fd5b506104d460048036038101906104cf9190613614565b6111d7565b6040516104e19190613eed565b60405180910390f35b3480156104f657600080fd5b50610511600480360381019061050c919061334c565b6112d3565b60405161051e91906141cf565b60405180910390f35b34801561053357600080fd5b5061053c61138b565b005b34801561054a57600080fd5b50610565600480360381019061056091906135d3565b611413565b6040516105729190613eed565b60405180910390f35b34801561058757600080fd5b50610590611463565b60405161059d9190613da4565b60405180910390f35b3480156105b257600080fd5b506105cd60048036038101906105c89190613545565b61148d565b005b3480156105db57600080fd5b506105e4611529565b6040516105f191906141cf565b60405180910390f35b34801561060657600080fd5b50610621600480360381019061061c9190613614565b61152f565b60405161062e9190613eed565b60405180910390f35b34801561064357600080fd5b5061064c6115db565b6040516106599190613eed565b60405180910390f35b34801561066e57600080fd5b5061068960048036038101906106849190613614565b61166d565b60405161069691906141cf565b60405180910390f35b3480156106ab57600080fd5b506106c660048036038101906106c1919061347b565b611685565b005b3480156106d457600080fd5b506106ef60048036038101906106ea9190613400565b61169b565b005b3480156106fd57600080fd5b5061071860048036038101906107139190613614565b6116fd565b6040516107259190613eed565b60405180910390f35b34801561073a57600080fd5b506107436117a9565b60405161075091906141cf565b60405180910390f35b34801561076557600080fd5b50610780600480360381019061077b9190613614565b6117af565b60405161078d9190613eed565b60405180910390f35b3480156107a257600080fd5b506107bd60048036038101906107b89190613614565b61196e565b6040516107ca9190613eed565b60405180910390f35b3480156107df57600080fd5b506107e8611ac0565b6040516107f591906141cf565b60405180910390f35b34801561080a57600080fd5b5061082560048036038101906108209190613375565b611ac6565b6040516108329190613e49565b60405180910390f35b34801561084757600080fd5b50610850611b5a565b60405161085d9190613e64565b60405180910390f35b34801561087257600080fd5b5061088d6004803603810190610888919061334c565b611c24565b005b60007f80ac58cd000000000000000000000000000000000000000000000000000000007bffffffffffffffffffffffffffffffffffffffffffffffffffffffff1916827bffffffffffffffffffffffffffffffffffffffffffffffffffffffff1916148061095a57507f5b5e139f000000000000000000000000000000000000000000000000000000007bffffffffffffffffffffffffffffffffffffffffffffffffffffffff1916827bffffffffffffffffffffffffffffffffffffffffffffffffffffffff1916145b8061096a575061096982611d1c565b5b9050919050565b606060008054610980906144f6565b80601f01602080910402602001604051908101604052809291908181526020018280546109ac906144f6565b80156109f95780601f106109ce576101008083540402835291602001916109f9565b820191906000526020600020905b8154815290600101906020018083116109dc57829003601f168201915b5050505050905090565b6000610a0e82611d86565b610a4d576040517f08c379a0000000000000000000000000000000000000000000000000000000008152600401610a44906140ef565b60405180910390fd5b6004600083815260200190815260200160002060009054906101000a900473ffffffffffffffffffffffffffffffffffffffff169050919050565b6000610a9382611125565b90508073ffffffffffffffffffffffffffffffffffffffff168373ffffffffffffffffffffffffffffffffffffffff161415610b04576040517f08c379a0000000000000000000000000000000000000000000000000000000008152600401610afb9061418f565b60405180910390fd5b8073ffffffffffffffffffffffffffffffffffffffff16610b23611df2565b73ffffffffffffffffffffffffffffffffffffffff161480610b525750610b5181610b4c611df2565b611ac6565b5b610b91576040517f08c379a0000000000000000000000000000000000000000000000000000000008152600401610b889061400f565b60405180910390fd5b610b9b8383611dfa565b505050565b600a6020528060005260406000206000915054906101000a900473ffffffffffffffffffffffffffffffffffffffff1681565b600c6020528060005260406000206000915090505481565b610bfc610bf6611df2565b82611eb3565b610c3b576040517f08c379a0000000000000000000000000000000000000000000000000000000008152600401610c32906141af565b60405180910390fd5b610c46838383611f91565b505050565b606060006040518060400160405280601a81526020017f646174613a696d6167652f7376672b786d6c3b6261736536342c00000000000081525090506000610cb184604051602001610c9d9190613c1c565b6040516020818303038152906040526121ed565b90508181604051602001610cc6929190613c33565b60405160208183030381529060405292505050919050565b60606000600160105484610cf291906145b6565b610cfc91906142dd565b90506040518060400160405280600981526020017f3c7061746820643d270000000000000000000000000000000000000000000000815250915060005b81811015610dbe576000610d848583601154610d5591906142dd565b604051602001610d669291906141ea565b6040516020818303038152906040528051906020012060001c6117af565b90508381604051602001610d99929190613c33565b6040516020818303038152906040529350508080610db690614559565b915050610d39565b5060006013808054905085610dd391906145b6565b81548110610e0a577f4e487b7100000000000000000000000000000000000000000000000000000000600052603260045260246000fd5b906000526020600020018054610e1f906144f6565b80601f0160208091040260200160405190810160405280929190818152602001828054610e4b906144f6565b8015610e985780601f10610e6d57610100808354040283529160200191610e98565b820191906000526020600020905b815481529060010190602001808311610e7b57829003601f168201915b505050505090508281604051602001610eb2929190613c57565b60405160208183030381529060405292505050919050565b610ed2611df2565b73ffffffffffffffffffffffffffffffffffffffff16610ef0611463565b73ffffffffffffffffffffffffffffffffffffffff1614610f46576040517f08c379a0000000000000000000000000000000000000000000000000000000008152600401610f3d9061410f565b60405180910390fd5b610f4e611463565b73ffffffffffffffffffffffffffffffffffffffff166108fc479081150290604051600060405180830381858888f19350505050158015610f93573d6000803e3d6000fd5b50565b610fb18383836040518060200160405280600081525061169b565b505050565b60105481565b6000610fc78261196e565b511115611009576040517f08c379a000000000000000000000000000000000000000000000000000000000815260040161100090613fcf565b60405180910390fd5b806009541161104d576040517f08c379a00000000000000000000000000000000000000000000000000000000081526004016110449061408f565b60405180910390fd5b6000600b600083815260200190815260200160002054116110a3576040517f08c379a000000000000000000000000000000000000000000000000000000000815260040161109a90613f6f565b60405180910390fd5b6000600b600083815260200190815260200160002054905060006110c6826111d7565b905060006110d382610c4b565b90506110e7846110e283611413565b61238c565b837f15a6487b7915a7116ce2a61d43b17e9b47484b1931f3c79f2f3d139b307b3893836040516111179190613eed565b60405180910390a250505050565b6000806002600084815260200190815260200160002060009054906101000a900473ffffffffffffffffffffffffffffffffffffffff169050600073ffffffffffffffffffffffffffffffffffffffff168173ffffffffffffffffffffffffffffffffffffffff1614156111ce576040517f08c379a00000000000000000000000000000000000000000000000000000000081526004016111c59061404f565b60405180910390fd5b80915050919050565b606060006001600f54846111eb91906145b6565b6111f591906142dd565b9050611202601154612400565b61120d601154612400565b60405160200161121e929190613d3d565b604051602081830303815290604052915060005b818110156112aa57600061127085836040516020016112529291906141ea565b6040516020818303038152906040528051906020012060001c610cde565b90508381604051602001611285929190613c33565b60405160208183030381529060405293505080806112a290614559565b915050611232565b50816040516020016112bc9190613cd8565b604051602081830303815290604052915050919050565b60008073ffffffffffffffffffffffffffffffffffffffff168273ffffffffffffffffffffffffffffffffffffffff161415611344576040517f08c379a000000000000000000000000000000000000000000000000000000000815260040161133b9061402f565b60405180910390fd5b600360008373ffffffffffffffffffffffffffffffffffffffff1673ffffffffffffffffffffffffffffffffffffffff168152602001908152602001600020549050919050565b611393611df2565b73ffffffffffffffffffffffffffffffffffffffff166113b1611463565b73ffffffffffffffffffffffffffffffffffffffff1614611407576040517f08c379a00000000000000000000000000000000000000000000000000000000081526004016113fe9061410f565b60405180910390fd5b61141160006125d5565b565b606061143d826040516020016114299190613cfa565b6040516020818303038152906040526121ed565b60405160200161144d9190613d82565b6040516020818303038152906040529050919050565b6000600860009054906101000a900473ffffffffffffffffffffffffffffffffffffffff16905090565b7f000000000000000000000000000000000000000000000000000000000000000073ffffffffffffffffffffffffffffffffffffffff163373ffffffffffffffffffffffffffffffffffffffff161461151b576040517f08c379a00000000000000000000000000000000000000000000000000000000081526004016115129061416f565b60405180910390fd5b611525828261269b565b5050565b60115481565b6012818154811061153f57600080fd5b90600052602060002001600091509050805461155a906144f6565b80601f0160208091040260200160405190810160405280929190818152602001828054611586906144f6565b80156115d35780601f106115a8576101008083540402835291602001916115d3565b820191906000526020600020905b8154815290600101906020018083116115b657829003601f168201915b505050505081565b6060600180546115ea906144f6565b80601f0160208091040260200160405190810160405280929190818152602001828054611616906144f6565b80156116635780601f1061163857610100808354040283529160200191611663565b820191906000526020600020905b81548152906001019060200180831161164657829003601f168201915b5050505050905090565b600b6020528060005260406000206000915090505481565b611697611690611df2565b838361274b565b5050565b6116ac6116a6611df2565b83611eb3565b6116eb576040517f08c379a00000000000000000000000000000000000000000000000000000000081526004016116e2906141af565b60405180910390fd5b6116f7848484846128b8565b50505050565b6013818154811061170d57600080fd5b906000526020600020016000915090508054611728906144f6565b80601f0160208091040260200160405190810160405280929190818152602001828054611754906144f6565b80156117a15780601f10611776576101008083540402835291602001916117a1565b820191906000526020600020905b81548152906001019060200180831161178457829003601f168201915b505050505081565b600f5481565b606060128080549050836117c391906145b6565b815481106117fa577f4e487b7100000000000000000000000000000000000000000000000000000000600052603260045260246000fd5b90600052602060002001805461180f906144f6565b80601f016020809104026020016040519081016040528092919081815260200182805461183b906144f6565b80156118885780601f1061185d57610100808354040283529160200191611888565b820191906000526020600020905b81548152906001019060200180831161186b57829003601f168201915b5050505050905060006011548360026011546118a4919061439b565b6040516020016118b59291906141ea565b6040516020818303038152906040528051906020012060001c6118d891906145b6565b9050600060115484600160026011546118f1919061439b565b6118fb91906142dd565b60405160200161190c9291906141ea565b6040516020818303038152906040528051906020012060001c61192f91906145b6565b90508261193b83612400565b61194483612400565b60405160200161195693929190613c91565b60405160208183030381529060405292505050919050565b606061197982611d86565b6119b8576040517f08c379a00000000000000000000000000000000000000000000000000000000081526004016119af906140cf565b60405180910390fd5b60006006600084815260200190815260200160002080546119d8906144f6565b80601f0160208091040260200160405190810160405280929190818152602001828054611a04906144f6565b8015611a515780601f10611a2657610100808354040283529160200191611a51565b820191906000526020600020905b815481529060010190602001808311611a3457829003601f168201915b505050505090506000611a62612914565b9050600081511415611a78578192505050611abb565b600082511115611aad578082604051602001611a95929190613c33565b60405160208183030381529060405292505050611abb565b611ab68461292b565b925050505b919050565b60095481565b6000600560008473ffffffffffffffffffffffffffffffffffffffff1673ffffffffffffffffffffffffffffffffffffffff16815260200190815260200160002060008373ffffffffffffffffffffffffffffffffffffffff1673ffffffffffffffffffffffffffffffffffffffff16815260200190815260200160002060009054906101000a900460ff16905092915050565b6000611b6a600d54600e546129d2565b905033600a600083815260200190815260200160002060006101000a81548173ffffffffffffffffffffffffffffffffffffffff021916908373ffffffffffffffffffffffffffffffffffffffff1602179055506000600954905080600c6000848152602001908152602001600020819055506001600954611bec91906142dd565b60098190555080827fb97343f1f2afc4959f818046ccae28fd7b05fcd2b7a7dc651cbb52a096cae03560405160405180910390a35090565b611c2c611df2565b73ffffffffffffffffffffffffffffffffffffffff16611c4a611463565b73ffffffffffffffffffffffffffffffffffffffff1614611ca0576040517f08c379a0000000000000000000000000000000000000000000000000000000008152600401611c979061410f565b60405180910390fd5b600073ffffffffffffffffffffffffffffffffffffffff168173ffffffffffffffffffffffffffffffffffffffff161415611d10576040517f08c379a0000000000000000000000000000000000000000000000000000000008152600401611d0790613f2f565b60405180910390fd5b611d19816125d5565b50565b60007f01ffc9a7000000000000000000000000000000000000000000000000000000007bffffffffffffffffffffffffffffffffffffffffffffffffffffffff1916827bffffffffffffffffffffffffffffffffffffffffffffffffffffffff1916149050919050565b60008073ffffffffffffffffffffffffffffffffffffffff166002600084815260200190815260200160002060009054906101000a900473ffffffffffffffffffffffffffffffffffffffff1673ffffffffffffffffffffffffffffffffffffffff1614159050919050565b600033905090565b816004600083815260200190815260200160002060006101000a81548173ffffffffffffffffffffffffffffffffffffffff021916908373ffffffffffffffffffffffffffffffffffffffff160217905550808273ffffffffffffffffffffffffffffffffffffffff16611e6d83611125565b73ffffffffffffffffffffffffffffffffffffffff167f8c5be1e5ebec7d5bd14f71427d1e84f3dd0314c0f7b2291e5b200ac8c7c3b92560405160405180910390a45050565b6000611ebe82611d86565b611efd576040517f08c379a0000000000000000000000000000000000000000000000000000000008152600401611ef490613fef565b60405180910390fd5b6000611f0883611125565b90508073ffffffffffffffffffffffffffffffffffffffff168473ffffffffffffffffffffffffffffffffffffffff161480611f7757508373ffffffffffffffffffffffffffffffffffffffff16611f5f84610a03565b73ffffffffffffffffffffffffffffffffffffffff16145b80611f885750611f878185611ac6565b5b91505092915050565b8273ffffffffffffffffffffffffffffffffffffffff16611fb182611125565b73ffffffffffffffffffffffffffffffffffffffff1614612007576040517f08c379a0000000000000000000000000000000000000000000000000000000008152600401611ffe9061412f565b60405180910390fd5b600073ffffffffffffffffffffffffffffffffffffffff168273ffffffffffffffffffffffffffffffffffffffff161415612077576040517f08c379a000000000000000000000000000000000000000000000000000000000815260040161206e90613f8f565b60405180910390fd5b612082838383612b34565b61208d600082611dfa565b6001600360008573ffffffffffffffffffffffffffffffffffffffff1673ffffffffffffffffffffffffffffffffffffffff16815260200190815260200160002060008282546120dd91906143f5565b925050819055506001600360008473ffffffffffffffffffffffffffffffffffffffff1673ffffffffffffffffffffffffffffffffffffffff168152602001908152602001600020600082825461213491906142dd565b92505081905550816002600083815260200190815260200160002060006101000a81548173ffffffffffffffffffffffffffffffffffffffff021916908373ffffffffffffffffffffffffffffffffffffffff160217905550808273ffffffffffffffffffffffffffffffffffffffff168473ffffffffffffffffffffffffffffffffffffffff167fddf252ad1be2c89b69c2b068fc378daa952ba7f163c4a11628f55a4df523b3ef60405160405180910390a4505050565b606060008251141561221057604051806020016040528060008152509050612387565b6000604051806060016040528060408152602001614f46604091399050600060036002855161223f91906142dd565b612249919061436a565b6004612255919061439b565b9050600060208261226691906142dd565b67ffffffffffffffff8111156122a5577f4e487b7100000000000000000000000000000000000000000000000000000000600052604160045260246000fd5b6040519080825280601f01601f1916602001820160405280156122d75781602001600182028036833780820191505090505b509050818152600183018586518101602084015b81831015612346576003830192508251603f8160121c168501518253600182019150603f81600c1c168501518253600182019150603f8160061c168501518253600182019150603f81168501518253600182019150506122eb565b60038951066001811461236057600281146123705761237b565b613d3d60f01b600283035261237b565b603d60f81b60018303525b50505050508093505050505b919050565b61239582611d86565b6123d4576040517f08c379a00000000000000000000000000000000000000000000000000000000081526004016123cb9061406f565b60405180910390fd5b806006600084815260200190815260200160002090805190602001906123fb929190613146565b505050565b60606000821415612448576040518060400160405280600181526020017f300000000000000000000000000000000000000000000000000000000000000081525090506125d0565b600082905060005b6000821461247a57808061246390614559565b915050600a82612473919061436a565b9150612450565b60008167ffffffffffffffff8111156124bc577f4e487b7100000000000000000000000000000000000000000000000000000000600052604160045260246000fd5b6040519080825280601f01601f1916602001820160405280156124ee5781602001600182028036833780820191505090505b50905060008290505b600086146125c85760018161250c91906143f5565b90506000600a808861251e919061436a565b612528919061439b565b8761253391906143f5565b603061253f9190614333565b905060008160f81b905080848481518110612583577f4e487b7100000000000000000000000000000000000000000000000000000000600052603260045260246000fd5b60200101907effffffffffffffffffffffffffffffffffffffffffffffffffffffffffffff1916908160001a905350600a886125bf919061436a565b975050506124f7565b819450505050505b919050565b6000600860009054906101000a900473ffffffffffffffffffffffffffffffffffffffff16905081600860006101000a81548173ffffffffffffffffffffffffffffffffffffffff021916908373ffffffffffffffffffffffffffffffffffffffff1602179055508173ffffffffffffffffffffffffffffffffffffffff168173ffffffffffffffffffffffffffffffffffffffff167f8be0079c531659141344cd1fd0a4f28419497f9722a3daafe3b4186f6b6457e060405160405180910390a35050565b6000600a600084815260200190815260200160002060009054906101000a900473ffffffffffffffffffffffffffffffffffffffff1690506000600c60008581526020019081526020016000205490506126f58282612b39565b82600b600083815260200190815260200160002081905550807faad5362ce528ed941024b95d4c18dfd49b8503e1f586a5c353631d98c2af41b78460405161273d91906141cf565b60405180910390a250505050565b8173ffffffffffffffffffffffffffffffffffffffff168373ffffffffffffffffffffffffffffffffffffffff1614156127ba576040517f08c379a00000000000000000000000000000000000000000000000000000000081526004016127b190613faf565b60405180910390fd5b80600560008573ffffffffffffffffffffffffffffffffffffffff1673ffffffffffffffffffffffffffffffffffffffff16815260200190815260200160002060008473ffffffffffffffffffffffffffffffffffffffff1673ffffffffffffffffffffffffffffffffffffffff16815260200190815260200160002060006101000a81548160ff0219169083151502179055508173ffffffffffffffffffffffffffffffffffffffff168373ffffffffffffffffffffffffffffffffffffffff167f17307eab39ab6107e8899845ad3d59bd9653f200f220920489ca2b5937696c31836040516128ab9190613e49565b60405180910390a3505050565b6128c3848484611f91565b6128cf84848484612b57565b61290e576040517f08c379a000000000000000000000000000000000000000000000000000000000815260040161290590613f0f565b60405180910390fd5b50505050565b606060405180602001604052806000815250905090565b606061293682611d86565b612975576040517f08c379a000000000000000000000000000000000000000000000000000000000815260040161296c9061414f565b60405180910390fd5b600061297f612914565b9050600081511161299f57604051806020016040528060008152506129ca565b806129a984612cee565b6040516020016129ba929190613c33565b6040516020818303038152906040525b915050919050565b60007f000000000000000000000000000000000000000000000000000000000000000073ffffffffffffffffffffffffffffffffffffffff16634000aea07f000000000000000000000000000000000000000000000000000000000000000084866000604051602001612a46929190613e7f565b6040516020818303038152906040526040518463ffffffff1660e01b8152600401612a7393929190613e0b565b602060405180830381600087803b158015612a8d57600080fd5b505af1158015612aa1573d6000803e3d6000fd5b505050506040513d601f19601f82011682018060405250810190612ac591906134f3565b506000612ae8846000306007600089815260200190815260200160002054612e9b565b905060016007600086815260200190815260200160002054612b0a91906142dd565b6007600086815260200190815260200160002081905550612b2b8482612ed7565b91505092915050565b505050565b612b53828260405180602001604052806000815250612f0a565b5050565b6000612b788473ffffffffffffffffffffffffffffffffffffffff16612f65565b15612ce1578373ffffffffffffffffffffffffffffffffffffffff1663150b7a02612ba1611df2565b8786866040518563ffffffff1660e01b8152600401612bc39493929190613dbf565b602060405180830381600087803b158015612bdd57600080fd5b505af1925050508015612c0e57506040513d601f19601f82011682018060405250810190612c0b91906135aa565b60015b612c91573d8060008114612c3e576040519150601f19603f3d011682016040523d82523d6000602084013e612c43565b606091505b50600081511415612c89576040517f08c379a0000000000000000000000000000000000000000000000000000000008152600401612c8090613f0f565b60405180910390fd5b805181602001fd5b63150b7a0260e01b7bffffffffffffffffffffffffffffffffffffffffffffffffffffffff1916817bffffffffffffffffffffffffffffffffffffffffffffffffffffffff191614915050612ce6565b600190505b949350505050565b60606000821415612d36576040518060400160405280600181526020017f30000000000000000000000000000000000000000000000000000000000000008152509050612e96565b600082905060005b60008214612d68578080612d5190614559565b915050600a82612d61919061436a565b9150612d3e565b60008167ffffffffffffffff811115612daa577f4e487b7100000000000000000000000000000000000000000000000000000000600052604160045260246000fd5b6040519080825280601f01601f191660200182016040528015612ddc5781602001600182028036833780820191505090505b5090505b60008514612e8f57600182612df591906143f5565b9150600a85612e0491906145b6565b6030612e1091906142dd565b60f81b818381518110612e4c577f4e487b7100000000000000000000000000000000000000000000000000000000600052603260045260246000fd5b60200101907effffffffffffffffffffffffffffffffffffffffffffffffffffffffffffff1916908160001a905350600a85612e88919061436a565b9450612de0565b8093505050505b919050565b600084848484604051602001612eb49493929190613ea8565b6040516020818303038152906040528051906020012060001c9050949350505050565b60008282604051602001612eec929190613bf0565b60405160208183030381529060405280519060200120905092915050565b612f148383612f78565b612f216000848484612b57565b612f60576040517f08c379a0000000000000000000000000000000000000000000000000000000008152600401612f5790613f0f565b60405180910390fd5b505050565b600080823b905060008111915050919050565b600073ffffffffffffffffffffffffffffffffffffffff168273ffffffffffffffffffffffffffffffffffffffff161415612fe8576040517f08c379a0000000000000000000000000000000000000000000000000000000008152600401612fdf906140af565b60405180910390fd5b612ff181611d86565b15613031576040517f08c379a000000000000000000000000000000000000000000000000000000000815260040161302890613f4f565b60405180910390fd5b61303d60008383612b34565b6001600360008473ffffffffffffffffffffffffffffffffffffffff1673ffffffffffffffffffffffffffffffffffffffff168152602001908152602001600020600082825461308d91906142dd565b92505081905550816002600083815260200190815260200160002060006101000a81548173ffffffffffffffffffffffffffffffffffffffff021916908373ffffffffffffffffffffffffffffffffffffffff160217905550808273ffffffffffffffffffffffffffffffffffffffff16600073ffffffffffffffffffffffffffffffffffffffff167fddf252ad1be2c89b69c2b068fc378daa952ba7f163c4a11628f55a4df523b3ef60405160405180910390a45050565b828054613152906144f6565b90600052602060002090601f01602090048101928261317457600085556131bb565b82601f1061318d57805160ff19168380011785556131bb565b828001600101855582156131bb579182015b828111156131ba57825182559160200191906001019061319f565b5b5090506131c891906131cc565b5090565b5b808211156131e55760008160009055506001016131cd565b5090565b60006131fc6131f784614238565b614213565b90508281526020810184848401111561321457600080fd5b61321f8482856144b4565b509392505050565b600061323a61323584614269565b614213565b90508281526020810184848401111561325257600080fd5b61325d8482856144b4565b509392505050565b60008135905061327481614ed2565b92915050565b60008135905061328981614ee9565b92915050565b60008151905061329e81614ee9565b92915050565b6000813590506132b381614f00565b92915050565b6000813590506132c881614f17565b92915050565b6000815190506132dd81614f17565b92915050565b600082601f8301126132f457600080fd5b81356133048482602086016131e9565b91505092915050565b600082601f83011261331e57600080fd5b813561332e848260208601613227565b91505092915050565b60008135905061334681614f2e565b92915050565b60006020828403121561335e57600080fd5b600061336c84828501613265565b91505092915050565b6000806040838503121561338857600080fd5b600061339685828601613265565b92505060206133a785828601613265565b9150509250929050565b6000806000606084860312156133c657600080fd5b60006133d486828701613265565b93505060206133e586828701613265565b92505060406133f686828701613337565b9150509250925092565b6000806000806080858703121561341657600080fd5b600061342487828801613265565b945050602061343587828801613265565b935050604061344687828801613337565b925050606085013567ffffffffffffffff81111561346357600080fd5b61346f878288016132e3565b91505092959194509250565b6000806040838503121561348e57600080fd5b600061349c85828601613265565b92505060206134ad8582860161327a565b9150509250929050565b600080604083850312156134ca57600080fd5b60006134d885828601613265565b92505060206134e985828601613337565b9150509250929050565b60006020828403121561350557600080fd5b60006135138482850161328f565b91505092915050565b60006020828403121561352e57600080fd5b600061353c848285016132a4565b91505092915050565b6000806040838503121561355857600080fd5b6000613566858286016132a4565b925050602061357785828601613337565b9150509250929050565b60006020828403121561359357600080fd5b60006135a1848285016132b9565b91505092915050565b6000602082840312156135bc57600080fd5b60006135ca848285016132ce565b91505092915050565b6000602082840312156135e557600080fd5b600082013567ffffffffffffffff8111156135ff57600080fd5b61360b8482850161330d565b91505092915050565b60006020828403121561362657600080fd5b600061363484828501613337565b91505092915050565b61364681614429565b82525050565b6136558161443b565b82525050565b61366481614447565b82525050565b61367b61367682614447565b6145a2565b82525050565b600061368c8261429a565b61369681856142b0565b93506136a68185602086016144c3565b6136af816146a3565b840191505092915050565b60006136c5826142a5565b6136cf81856142c1565b93506136df8185602086016144c3565b6136e8816146a3565b840191505092915050565b60006136fe826142a5565b61370881856142d2565b93506137188185602086016144c3565b80840191505092915050565b60006137316009836142d2565b915061373c826146b4565b600982019050919050565b60006137546032836142c1565b915061375f826146dd565b604082019050919050565b60006137776026836142c1565b91506137828261472c565b604082019050919050565b600061379a601c836142c1565b91506137a58261477b565b602082019050919050565b60006137bd602f836142c1565b91506137c8826147a4565b604082019050919050565b60006137e06024836142c1565b91506137eb826147f3565b604082019050919050565b60006138036019836142c1565b915061380e82614842565b602082019050919050565b60006138266018836142c1565b91506138318261486b565b602082019050919050565b6000613849602c836142c1565b915061385482614894565b604082019050919050565b600061386c601d836142d2565b9150613877826148e3565b601d82019050919050565b600061388f6001836142d2565b915061389a8261490c565b600182019050919050565b60006138b26003836142d2565b91506138bd82614935565b600382019050919050565b60006138d56007836142d2565b91506138e08261495e565b600782019050919050565b60006138f86038836142c1565b915061390382614987565b604082019050919050565b600061391b602a836142c1565b9150613926826149d6565b604082019050919050565b600061393e6029836142c1565b915061394982614a25565b604082019050919050565b6000613961602e836142c1565b915061396c82614a74565b604082019050919050565b60006139846020836142c1565b915061398f82614ac3565b602082019050919050565b60006139a76002836142d2565b91506139b282614aec565b600282019050919050565b60006139ca6020836142c1565b91506139d582614b15565b602082019050919050565b60006139ed6031836142c1565b91506139f882614b3e565b604082019050919050565b6000613a10602c836142c1565b9150613a1b82614b8d565b604082019050919050565b6000613a336020836142c1565b9150613a3e82614bdc565b602082019050919050565b6000613a566029836142c1565b9150613a6182614c05565b604082019050919050565b6000613a796030836142d2565b9150613a8482614c54565b603082019050919050565b6000613a9c602f836142c1565b9150613aa782614ca3565b604082019050919050565b6000613abf601f836142c1565b9150613aca82614cf2565b602082019050919050565b6000613ae26043836142d2565b9150613aed82614d1b565b604382019050919050565b6000613b056021836142c1565b9150613b1082614d90565b604082019050919050565b6000613b28601d836142d2565b9150613b3382614ddf565b601d82019050919050565b6000613b4b6031836142c1565b9150613b5682614e08565b604082019050919050565b6000613b6e6002836142d2565b9150613b7982614e57565b600282019050919050565b6000613b916006836142d2565b9150613b9c82614e80565b600682019050919050565b6000613bb46009836142d2565b9150613bbf82614ea9565b600982019050919050565b613bd38161449d565b82525050565b613bea613be58261449d565b6145ac565b82525050565b6000613bfc828561366a565b602082019150613c0c8284613bd9565b6020820191508190509392505050565b6000613c2882846136f3565b915081905092915050565b6000613c3f82856136f3565b9150613c4b82846136f3565b91508190509392505050565b6000613c6382856136f3565b9150613c6e8261385f565b9150613c7a82846136f3565b9150613c85826138a5565b91508190509392505050565b6000613c9d82866136f3565b9150613ca882613882565b9150613cb482856136f3565b9150613cbf82613882565b9150613ccb82846136f3565b9150819050949350505050565b6000613ce482846136f3565b9150613cef82613b84565b915081905092915050565b6000613d0582613724565b9150613d10826138c8565b9150613d1b82613ad5565b9150613d2782846136f3565b9150613d328261399a565b915081905092915050565b6000613d4882613a6c565b9150613d5482856136f3565b9150613d5f82613ba7565b9150613d6b82846136f3565b9150613d7682613b61565b91508190509392505050565b6000613d8d82613b1b565b9150613d9982846136f3565b915081905092915050565b6000602082019050613db9600083018461363d565b92915050565b6000608082019050613dd4600083018761363d565b613de1602083018661363d565b613dee6040830185613bca565b8181036060830152613e008184613681565b905095945050505050565b6000606082019050613e20600083018661363d565b613e2d6020830185613bca565b8181036040830152613e3f8184613681565b9050949350505050565b6000602082019050613e5e600083018461364c565b92915050565b6000602082019050613e79600083018461365b565b92915050565b6000604082019050613e94600083018561365b565b613ea16020830184613bca565b9392505050565b6000608082019050613ebd600083018761365b565b613eca6020830186613bca565b613ed7604083018561363d565b613ee46060830184613bca565b95945050505050565b60006020820190508181036000830152613f0781846136ba565b905092915050565b60006020820190508181036000830152613f2881613747565b9050919050565b60006020820190508181036000830152613f488161376a565b9050919050565b60006020820190508181036000830152613f688161378d565b9050919050565b60006020820190508181036000830152613f88816137b0565b9050919050565b60006020820190508181036000830152613fa8816137d3565b9050919050565b60006020820190508181036000830152613fc8816137f6565b9050919050565b60006020820190508181036000830152613fe881613819565b9050919050565b600060208201905081810360008301526140088161383c565b9050919050565b60006020820190508181036000830152614028816138eb565b9050919050565b600060208201905081810360008301526140488161390e565b9050919050565b6000602082019050818103600083015261406881613931565b9050919050565b6000602082019050818103600083015261408881613954565b9050919050565b600060208201905081810360008301526140a881613977565b9050919050565b600060208201905081810360008301526140c8816139bd565b9050919050565b600060208201905081810360008301526140e8816139e0565b9050919050565b6000602082019050818103600083015261410881613a03565b9050919050565b6000602082019050818103600083015261412881613a26565b9050919050565b6000602082019050818103600083015261414881613a49565b9050919050565b6000602082019050818103600083015261416881613a8f565b9050919050565b6000602082019050818103600083015261418881613ab2565b9050919050565b600060208201905081810360008301526141a881613af8565b9050919050565b600060208201905081810360008301526141c881613b3e565b9050919050565b60006020820190506141e46000830184613bca565b92915050565b60006040820190506141ff6000830185613bca565b61420c6020830184613bca565b9392505050565b600061421d61422e565b90506142298282614528565b919050565b6000604051905090565b600067ffffffffffffffff82111561425357614252614674565b5b61425c826146a3565b9050602081019050919050565b600067ffffffffffffffff82111561428457614283614674565b5b61428d826146a3565b9050602081019050919050565b600081519050919050565b600081519050919050565b600082825260208201905092915050565b600082825260208201905092915050565b600081905092915050565b60006142e88261449d565b91506142f38361449d565b9250827fffffffffffffffffffffffffffffffffffffffffffffffffffffffffffffffff03821115614328576143276145e7565b5b828201905092915050565b600061433e826144a7565b9150614349836144a7565b92508260ff0382111561435f5761435e6145e7565b5b828201905092915050565b60006143758261449d565b91506143808361449d565b9250826143905761438f614616565b5b828204905092915050565b60006143a68261449d565b91506143b18361449d565b9250817fffffffffffffffffffffffffffffffffffffffffffffffffffffffffffffffff04831182151516156143ea576143e96145e7565b5b828202905092915050565b60006144008261449d565b915061440b8361449d565b92508282101561441e5761441d6145e7565b5b828203905092915050565b60006144348261447d565b9050919050565b60008115159050919050565b6000819050919050565b60007fffffffff0000000000000000000000000000000000000000000000000000000082169050919050565b600073ffffffffffffffffffffffffffffffffffffffff82169050919050565b6000819050919050565b600060ff82169050919050565b82818337600083830152505050565b60005b838110156144e15780820151818401526020810190506144c6565b838111156144f0576000848401525b50505050565b6000600282049050600182168061450e57607f821691505b6020821081141561452257614521614645565b5b50919050565b614531826146a3565b810181811067ffffffffffffffff821117156145505761454f614674565b5b80604052505050565b60006145648261449d565b91507fffffffffffffffffffffffffffffffffffffffffffffffffffffffffffffffff821415614597576145966145e7565b5b600182019050919050565b6000819050919050565b6000819050919050565b60006145c18261449d565b91506145cc8361449d565b9250826145dc576145db614616565b5b828206905092915050565b7f4e487b7100000000000000000000000000000000000000000000000000000000600052601160045260246000fd5b7f4e487b7100000000000000000000000000000000000000000000000000000000600052601260045260246000fd5b7f4e487b7100000000000000000000000000000000000000000000000000000000600052602260045260246000fd5b7f4e487b7100000000000000000000000000000000000000000000000000000000600052604160045260246000fd5b6000601f19601f8301169050919050565b7f7b226e616d65223a220000000000000000000000000000000000000000000000600082015250565b7f4552433732313a207472616e7366657220746f206e6f6e20455243373231526560008201527f63656976657220696d706c656d656e7465720000000000000000000000000000602082015250565b7f4f776e61626c653a206e6577206f776e657220697320746865207a65726f206160008201527f6464726573730000000000000000000000000000000000000000000000000000602082015250565b7f4552433732313a20746f6b656e20616c7265616479206d696e74656400000000600082015250565b7f4e65656420746f207761697420666f722074686520436861696e6c696e6b206e60008201527f6f646520746f20726573706f6e64210000000000000000000000000000000000602082015250565b7f4552433732313a207472616e7366657220746f20746865207a65726f2061646460008201527f7265737300000000000000000000000000000000000000000000000000000000602082015250565b7f4552433732313a20617070726f766520746f2063616c6c657200000000000000600082015250565b7f746f6b656e55524920697320616c726561647920736574210000000000000000600082015250565b7f4552433732313a206f70657261746f7220717565727920666f72206e6f6e657860008201527f697374656e7420746f6b656e0000000000000000000000000000000000000000602082015250565b7f272066696c6c3d277472616e73706172656e7427207374726f6b653d27000000600082015250565b7f2000000000000000000000000000000000000000000000000000000000000000600082015250565b7f272f3e0000000000000000000000000000000000000000000000000000000000600082015250565b7f535647204e465400000000000000000000000000000000000000000000000000600082015250565b7f4552433732313a20617070726f76652063616c6c6572206973206e6f74206f7760008201527f6e6572206e6f7220617070726f76656420666f7220616c6c0000000000000000602082015250565b7f4552433732313a2062616c616e636520717565727920666f7220746865207a6560008201527f726f206164647265737300000000000000000000000000000000000000000000602082015250565b7f4552433732313a206f776e657220717565727920666f72206e6f6e657869737460008201527f656e7420746f6b656e0000000000000000000000000000000000000000000000602082015250565b7f45524337323155524953746f726167653a2055524920736574206f66206e6f6e60008201527f6578697374656e7420746f6b656e000000000000000000000000000000000000602082015250565b7f546f6b656e496420686173206e6f74206265656e206d696e7465642079657421600082015250565b7f227d000000000000000000000000000000000000000000000000000000000000600082015250565b7f4552433732313a206d696e7420746f20746865207a65726f2061646472657373600082015250565b7f45524337323155524953746f726167653a2055524920717565727920666f722060008201527f6e6f6e6578697374656e7420746f6b656e000000000000000000000000000000602082015250565b7f4552433732313a20617070726f76656420717565727920666f72206e6f6e657860008201527f697374656e7420746f6b656e0000000000000000000000000000000000000000602082015250565b7f4f776e61626c653a2063616c6c6572206973206e6f7420746865206f776e6572600082015250565b7f4552433732313a207472616e73666572206f6620746f6b656e2074686174206960008201527f73206e6f74206f776e0000000000000000000000000000000000000000000000602082015250565b7f3c73766720786d6c6e733d27687474703a2f2f7777772e77332e6f72672f323060008201527f30302f73766727206865696768743d2700000000000000000000000000000000602082015250565b7f4552433732314d657461646174613a2055524920717565727920666f72206e6f60008201527f6e6578697374656e7420746f6b656e0000000000000000000000000000000000602082015250565b7f4f6e6c7920565246436f6f7264696e61746f722063616e2066756c66696c6c00600082015250565b7f222c20226465736372697074696f6e223a22416e204e4654206261736564206f60008201527f6e2053564721222c202261747472696275746573223a22222c2022696d61676560208201527f223a220000000000000000000000000000000000000000000000000000000000604082015250565b7f4552433732313a20617070726f76616c20746f2063757272656e74206f776e6560008201527f7200000000000000000000000000000000000000000000000000000000000000602082015250565b7f646174613a6170706c69636174696f6e2f6a736f6e3b6261736536342c000000600082015250565b7f4552433732313a207472616e736665722063616c6c6572206973206e6f74206f60008201527f776e6572206e6f7220617070726f766564000000000000000000000000000000602082015250565b7f273e000000000000000000000000000000000000000000000000000000000000600082015250565b7f3c2f7376673e0000000000000000000000000000000000000000000000000000600082015250565b7f272077696474683d270000000000000000000000000000000000000000000000600082015250565b614edb81614429565b8114614ee657600080fd5b50565b614ef28161443b565b8114614efd57600080fd5b50565b614f0981614447565b8114614f1457600080fd5b50565b614f2081614451565b8114614f2b57600080fd5b50565b614f378161449d565b8114614f4257600080fd5b5056fe4142434445464748494a4b4c4d4e4f505152535455565758595a6162636465666768696a6b6c6d6e6f707172737475767778797a303132333435363738392b2fa2646970667358221220c54fc557bf452c2357de094a535d2c4687d99b17002ca6542c32deff585cba8764736f6c63430008030033",
  "devdoc": {
    "kind": "dev",
    "methods": {
      "approve(address,uint256)": {
        "details": "See {IERC721-approve}."
      },
      "balanceOf(address)": {
        "details": "See {IERC721-balanceOf}."
      },
      "getApproved(uint256)": {
        "details": "See {IERC721-getApproved}."
      },
      "isApprovedForAll(address,address)": {
        "details": "See {IERC721-isApprovedForAll}."
      },
      "name()": {
        "details": "See {IERC721Metadata-name}."
      },
      "owner()": {
        "details": "Returns the address of the current owner."
      },
      "ownerOf(uint256)": {
        "details": "See {IERC721-ownerOf}."
      },
      "renounceOwnership()": {
        "details": "Leaves the contract without owner. It will not be possible to call `onlyOwner` functions anymore. Can only be called by the current owner. NOTE: Renouncing ownership will leave the contract without an owner, thereby removing any functionality that is only available to the owner."
      },
      "safeTransferFrom(address,address,uint256)": {
        "details": "See {IERC721-safeTransferFrom}."
      },
      "safeTransferFrom(address,address,uint256,bytes)": {
        "details": "See {IERC721-safeTransferFrom}."
      },
      "setApprovalForAll(address,bool)": {
        "details": "See {IERC721-setApprovalForAll}."
      },
      "supportsInterface(bytes4)": {
        "details": "See {IERC165-supportsInterface}."
      },
      "symbol()": {
        "details": "See {IERC721Metadata-symbol}."
      },
      "tokenURI(uint256)": {
        "details": "See {IERC721Metadata-tokenURI}."
      },
      "transferFrom(address,address,uint256)": {
        "details": "See {IERC721-transferFrom}."
      },
      "transferOwnership(address)": {
        "details": "Transfers ownership of the contract to a new account (`newOwner`). Can only be called by the current owner."
      }
    },
    "version": 1
  },
  "userdoc": {
    "kind": "user",
    "methods": {},
    "version": 1
  },
  "storageLayout": {
    "storage": [
      {
        "astId": 1193,
        "contract": "contracts/RandomSVG.sol:RandomSVG",
        "label": "_name",
        "offset": 0,
        "slot": "0",
        "type": "t_string_storage"
      },
      {
        "astId": 1195,
        "contract": "contracts/RandomSVG.sol:RandomSVG",
        "label": "_symbol",
        "offset": 0,
        "slot": "1",
        "type": "t_string_storage"
      },
      {
        "astId": 1199,
        "contract": "contracts/RandomSVG.sol:RandomSVG",
        "label": "_owners",
        "offset": 0,
        "slot": "2",
        "type": "t_mapping(t_uint256,t_address)"
      },
      {
        "astId": 1203,
        "contract": "contracts/RandomSVG.sol:RandomSVG",
        "label": "_balances",
        "offset": 0,
        "slot": "3",
        "type": "t_mapping(t_address,t_uint256)"
      },
      {
        "astId": 1207,
        "contract": "contracts/RandomSVG.sol:RandomSVG",
        "label": "_tokenApprovals",
        "offset": 0,
        "slot": "4",
        "type": "t_mapping(t_uint256,t_address)"
      },
      {
        "astId": 1213,
        "contract": "contracts/RandomSVG.sol:RandomSVG",
        "label": "_operatorApprovals",
        "offset": 0,
        "slot": "5",
        "type": "t_mapping(t_address,t_mapping(t_address,t_bool))"
      },
      {
        "astId": 2145,
        "contract": "contracts/RandomSVG.sol:RandomSVG",
        "label": "_tokenURIs",
        "offset": 0,
        "slot": "6",
        "type": "t_mapping(t_uint256,t_string_storage)"
      },
      {
        "astId": 79,
        "contract": "contracts/RandomSVG.sol:RandomSVG",
        "label": "nonces",
        "offset": 0,
        "slot": "7",
        "type": "t_mapping(t_bytes32,t_uint256)"
      },
      {
        "astId": 1070,
        "contract": "contracts/RandomSVG.sol:RandomSVG",
        "label": "_owner",
        "offset": 0,
        "slot": "8",
        "type": "t_address"
      },
      {
        "astId": 394,
        "contract": "contracts/RandomSVG.sol:RandomSVG",
        "label": "tokenCounter",
        "offset": 0,
        "slot": "9",
        "type": "t_uint256"
      },
      {
        "astId": 416,
        "contract": "contracts/RandomSVG.sol:RandomSVG",
        "label": "requestIdToSender",
        "offset": 0,
        "slot": "10",
        "type": "t_mapping(t_bytes32,t_address)"
      },
      {
        "astId": 420,
        "contract": "contracts/RandomSVG.sol:RandomSVG",
        "label": "tokenIdToRandomNumber",
        "offset": 0,
        "slot": "11",
        "type": "t_mapping(t_uint256,t_uint256)"
      },
      {
        "astId": 424,
        "contract": "contracts/RandomSVG.sol:RandomSVG",
        "label": "requestIdToTokenId",
        "offset": 0,
        "slot": "12",
        "type": "t_mapping(t_bytes32,t_uint256)"
      },
      {
        "astId": 426,
        "contract": "contracts/RandomSVG.sol:RandomSVG",
        "label": "keyHash",
        "offset": 0,
        "slot": "13",
        "type": "t_bytes32"
      },
      {
        "astId": 428,
        "contract": "contracts/RandomSVG.sol:RandomSVG",
        "label": "fee",
        "offset": 0,
        "slot": "14",
        "type": "t_uint256"
      },
      {
        "astId": 430,
        "contract": "contracts/RandomSVG.sol:RandomSVG",
        "label": "maxNumberOfPaths",
        "offset": 0,
        "slot": "15",
        "type": "t_uint256"
      },
      {
        "astId": 432,
        "contract": "contracts/RandomSVG.sol:RandomSVG",
        "label": "maxNumberOfPathCommands",
        "offset": 0,
        "slot": "16",
        "type": "t_uint256"
      },
      {
        "astId": 434,
        "contract": "contracts/RandomSVG.sol:RandomSVG",
        "label": "size",
        "offset": 0,
        "slot": "17",
        "type": "t_uint256"
      },
      {
        "astId": 437,
        "contract": "contracts/RandomSVG.sol:RandomSVG",
        "label": "pathCommands",
        "offset": 0,
        "slot": "18",
        "type": "t_array(t_string_storage)dyn_storage"
      },
      {
        "astId": 440,
        "contract": "contracts/RandomSVG.sol:RandomSVG",
        "label": "colors",
        "offset": 0,
        "slot": "19",
        "type": "t_array(t_string_storage)dyn_storage"
      }
    ],
    "types": {
      "t_address": {
        "encoding": "inplace",
        "label": "address",
        "numberOfBytes": "20"
      },
      "t_array(t_string_storage)dyn_storage": {
        "base": "t_string_storage",
        "encoding": "dynamic_array",
        "label": "string[]",
        "numberOfBytes": "32"
      },
      "t_bool": {
        "encoding": "inplace",
        "label": "bool",
        "numberOfBytes": "1"
      },
      "t_bytes32": {
        "encoding": "inplace",
        "label": "bytes32",
        "numberOfBytes": "32"
      },
      "t_mapping(t_address,t_bool)": {
        "encoding": "mapping",
        "key": "t_address",
        "label": "mapping(address => bool)",
        "numberOfBytes": "32",
        "value": "t_bool"
      },
      "t_mapping(t_address,t_mapping(t_address,t_bool))": {
        "encoding": "mapping",
        "key": "t_address",
        "label": "mapping(address => mapping(address => bool))",
        "numberOfBytes": "32",
        "value": "t_mapping(t_address,t_bool)"
      },
      "t_mapping(t_address,t_uint256)": {
        "encoding": "mapping",
        "key": "t_address",
        "label": "mapping(address => uint256)",
        "numberOfBytes": "32",
        "value": "t_uint256"
      },
      "t_mapping(t_bytes32,t_address)": {
        "encoding": "mapping",
        "key": "t_bytes32",
        "label": "mapping(bytes32 => address)",
        "numberOfBytes": "32",
        "value": "t_address"
      },
      "t_mapping(t_bytes32,t_uint256)": {
        "encoding": "mapping",
        "key": "t_bytes32",
        "label": "mapping(bytes32 => uint256)",
        "numberOfBytes": "32",
        "value": "t_uint256"
      },
      "t_mapping(t_uint256,t_address)": {
        "encoding": "mapping",
        "key": "t_uint256",
        "label": "mapping(uint256 => address)",
        "numberOfBytes": "32",
        "value": "t_address"
      },
      "t_mapping(t_uint256,t_string_storage)": {
        "encoding": "mapping",
        "key": "t_uint256",
        "label": "mapping(uint256 => string)",
        "numberOfBytes": "32",
        "value": "t_string_storage"
      },
      "t_mapping(t_uint256,t_uint256)": {
        "encoding": "mapping",
        "key": "t_uint256",
        "label": "mapping(uint256 => uint256)",
        "numberOfBytes": "32",
        "value": "t_uint256"
      },
      "t_string_storage": {
        "encoding": "bytes",
        "label": "string",
        "numberOfBytes": "32"
      },
      "t_uint256": {
        "encoding": "inplace",
        "label": "uint256",
        "numberOfBytes": "32"
      }
    }
  }
}