{
  "address": "0x88C29786b994980aCB253030f32646D724D93821",
  "abi": [
    {
      "inputs": [
        {
          "internalType": "address",
          "name": "_registry",
          "type": "address"
        }
      ],
      "stateMutability": "nonpayable",
      "type": "constructor"
    },
    {
      "inputs": [],
      "name": "getEthUsdPrice",
      "outputs": [
        {
          "internalType": "int256",
          "name": "",
          "type": "int256"
        }
      ],
      "stateMutability": "view",
      "type": "function"
    },
    {
      "inputs": [
        {
          "internalType": "address",
          "name": "base",
          "type": "address"
        },
        {
          "internalType": "address",
          "name": "quote",
          "type": "address"
        }
      ],
      "name": "getPrice",
      "outputs": [
        {
          "internalType": "int256",
          "name": "",
          "type": "int256"
        }
      ],
      "stateMutability": "view",
      "type": "function"
    }
  ],
  "transactionHash": "0x5e9de1fe06591387aa07b6784584324e8796fea38daddf465559a110f8bb1553",
  "args": [
    "0x0Cb5BC00708126899c320bB341e5DCf3479f0ace"
  ],
  "solcInputHash": "cdf6a64e210c8d1f7295e999501ba985",
  "bytecode": "0x608060405234801561001057600080fd5b506040516105993803806105998339818101604052810190610032919061008d565b806000806101000a81548173ffffffffffffffffffffffffffffffffffffffff021916908373ffffffffffffffffffffffffffffffffffffffff160217905550506100ff565b600081519050610087816100e8565b92915050565b60006020828403121561009f57600080fd5b60006100ad84828501610078565b91505092915050565b60006100c1826100c8565b9050919050565b600073ffffffffffffffffffffffffffffffffffffffff82169050919050565b6100f1816100b6565b81146100fc57600080fd5b50565b61048b8061010e6000396000f3fe608060405234801561001057600080fd5b50600436106100365760003560e01c8063a0a8045e1461003b578063ac41865a14610059575b600080fd5b610043610089565b6040516100509190610382565b60405180910390f35b610073600480360381019061006e9190610288565b610168565b6040516100809190610382565b60405180910390f35b60008060008060008060008054906101000a900473ffffffffffffffffffffffffffffffffffffffff1673ffffffffffffffffffffffffffffffffffffffff1663bcfd032d73eeeeeeeeeeeeeeeeeeeeeeeeeeeeeeeeeeeeeeee6103486040518363ffffffff1660e01b8152600401610103929190610359565b60a06040518083038186803b15801561011b57600080fd5b505afa15801561012f573d6000803e3d6000fd5b505050506040513d601f19601f8201168201806040525081019061015391906102c4565b94509450945094509450839550505050505090565b60008060008060008060008054906101000a900473ffffffffffffffffffffffffffffffffffffffff1673ffffffffffffffffffffffffffffffffffffffff1663bcfd032d89896040518363ffffffff1660e01b81526004016101cc929190610359565b60a06040518083038186803b1580156101e457600080fd5b505afa1580156101f8573d6000803e3d6000fd5b505050506040513d601f19601f8201168201806040525081019061021c91906102c4565b94509450945094509450839550505050505092915050565b600081359050610243816103f9565b92915050565b60008151905061025881610410565b92915050565b60008151905061026d81610427565b92915050565b6000815190506102828161043e565b92915050565b6000806040838503121561029b57600080fd5b60006102a985828601610234565b92505060206102ba85828601610234565b9150509250929050565b600080600080600060a086880312156102dc57600080fd5b60006102ea88828901610273565b95505060206102fb88828901610249565b945050604061030c8882890161025e565b935050606061031d8882890161025e565b925050608061032e88828901610273565b9150509295509295909350565b6103448161039d565b82525050565b610353816103af565b82525050565b600060408201905061036e600083018561033b565b61037b602083018461033b565b9392505050565b6000602082019050610397600083018461034a565b92915050565b60006103a8826103b9565b9050919050565b6000819050919050565b600073ffffffffffffffffffffffffffffffffffffffff82169050919050565b6000819050919050565b600069ffffffffffffffffffff82169050919050565b6104028161039d565b811461040d57600080fd5b50565b610419816103af565b811461042457600080fd5b50565b610430816103d9565b811461043b57600080fd5b50565b610447816103e3565b811461045257600080fd5b5056fea26469706673582212207ceb76decc7e913d6a3cea01eeb4a562b5a1d4fe17041ed5191e48600e09a39a64736f6c63430008030033",
  "devdoc": {
    "kind": "dev",
    "methods": {},
    "version": 1
  },
  "userdoc": {
    "kind": "user",
    "methods": {
      "constructor": {
        "notice": "Network: Ethereum Kovan Feed Registry: 0xAa7F6f7f507457a1EE157fE97F6c7DB2BEec5cD0"
      },
      "getEthUsdPrice()": {
        "notice": "Returns the ETH / USD price"
      },
      "getPrice(address,address)": {
        "notice": "Returns the latest price"
      }
    },
    "version": 1
  },
  "storageLayout": {
    "storage": [
      {
        "astId": 1079,
        "contract": "contracts/PriceConsumer.sol:PriceConsumer",
        "label": "registry",
        "offset": 0,
        "slot": "0",
        "type": "t_contract(FeedRegistryInterface)701"
      }
    ],
    "types": {
      "t_contract(FeedRegistryInterface)701": {
        "encoding": "inplace",
        "label": "contract FeedRegistryInterface",
        "numberOfBytes": "20"
      }
    }
  }
}