{
  "address": "0x0A2486866F561A974ee310131674677a2abB9861",
  "abi": [
    {
      "inputs": [
        {
          "internalType": "address",
          "name": "_VRFCoordinator",
          "type": "address"
        },
        {
          "internalType": "address",
          "name": "_LinkToken",
          "type": "address"
        },
        {
          "internalType": "bytes32",
          "name": "_keyhash",
          "type": "bytes32"
        },
        {
          "internalType": "uint256",
          "name": "_fee",
          "type": "uint256"
        }
      ],
      "stateMutability": "nonpayable",
      "type": "constructor"
    },
    {
      "anonymous": false,
      "inputs": [
        {
          "indexed": true,
          "internalType": "address",
          "name": "owner",
          "type": "address"
        },
        {
          "indexed": true,
          "internalType": "address",
          "name": "approved",
          "type": "address"
        },
        {
          "indexed": true,
          "internalType": "uint256",
          "name": "tokenId",
          "type": "uint256"
        }
      ],
      "name": "Approval",
      "type": "event"
    },
    {
      "anonymous": false,
      "inputs": [
        {
          "indexed": true,
          "internalType": "address",
          "name": "owner",
          "type": "address"
        },
        {
          "indexed": true,
          "internalType": "address",
          "name": "operator",
          "type": "address"
        },
        {
          "indexed": false,
          "internalType": "bool",
          "name": "approved",
          "type": "bool"
        }
      ],
      "name": "ApprovalForAll",
      "type": "event"
    },
    {
      "anonymous": false,
      "inputs": [
        {
          "indexed": true,
          "internalType": "uint256",
          "name": "tokenId",
          "type": "uint256"
        },
        {
          "indexed": false,
          "internalType": "string",
          "name": "tokenURI",
          "type": "string"
        }
      ],
      "name": "CreatedRandomSVG",
      "type": "event"
    },
    {
      "anonymous": false,
      "inputs": [
        {
          "indexed": true,
          "internalType": "uint256",
          "name": "tokenId",
          "type": "uint256"
        },
        {
          "indexed": false,
          "internalType": "uint256",
          "name": "randomNumber",
          "type": "uint256"
        }
      ],
      "name": "CreatedUnfinishedRandomSVG",
      "type": "event"
    },
    {
      "anonymous": false,
      "inputs": [
        {
          "indexed": true,
          "internalType": "address",
          "name": "previousOwner",
          "type": "address"
        },
        {
          "indexed": true,
          "internalType": "address",
          "name": "newOwner",
          "type": "address"
        }
      ],
      "name": "OwnershipTransferred",
      "type": "event"
    },
    {
      "anonymous": false,
      "inputs": [
        {
          "indexed": true,
          "internalType": "address",
          "name": "from",
          "type": "address"
        },
        {
          "indexed": true,
          "internalType": "address",
          "name": "to",
          "type": "address"
        },
        {
          "indexed": true,
          "internalType": "uint256",
          "name": "tokenId",
          "type": "uint256"
        }
      ],
      "name": "Transfer",
      "type": "event"
    },
    {
      "anonymous": false,
      "inputs": [
        {
          "indexed": true,
          "internalType": "bytes32",
          "name": "requestId",
          "type": "bytes32"
        },
        {
          "indexed": true,
          "internalType": "uint256",
          "name": "tokenId",
          "type": "uint256"
        }
      ],
      "name": "requestedRandomSVG",
      "type": "event"
    },
    {
      "inputs": [
        {
          "internalType": "address",
          "name": "to",
          "type": "address"
        },
        {
          "internalType": "uint256",
          "name": "tokenId",
          "type": "uint256"
        }
      ],
      "name": "approve",
      "outputs": [],
      "stateMutability": "nonpayable",
      "type": "function"
    },
    {
      "inputs": [
        {
          "internalType": "address",
          "name": "owner",
          "type": "address"
        }
      ],
      "name": "balanceOf",
      "outputs": [
        {
          "internalType": "uint256",
          "name": "",
          "type": "uint256"
        }
      ],
      "stateMutability": "view",
      "type": "function"
    },
    {
      "inputs": [
        {
          "internalType": "bytes32",
          "name": "_bytes32",
          "type": "bytes32"
        }
      ],
      "name": "bytes32ToString",
      "outputs": [
        {
          "internalType": "string",
          "name": "",
          "type": "string"
        }
      ],
      "stateMutability": "pure",
      "type": "function"
    },
    {
      "inputs": [
        {
          "internalType": "uint256",
          "name": "",
          "type": "uint256"
        }
      ],
      "name": "colors",
      "outputs": [
        {
          "internalType": "string",
          "name": "",
          "type": "string"
        }
      ],
      "stateMutability": "view",
      "type": "function"
    },
    {
      "inputs": [],
      "name": "create",
      "outputs": [
        {
          "internalType": "bytes32",
          "name": "requestId",
          "type": "bytes32"
        }
      ],
      "stateMutability": "nonpayable",
      "type": "function"
    },
    {
      "inputs": [
        {
          "internalType": "uint256",
          "name": "tokenId",
          "type": "uint256"
        }
      ],
      "name": "finishMint",
      "outputs": [],
      "stateMutability": "nonpayable",
      "type": "function"
    },
    {
      "inputs": [
        {
          "internalType": "string",
          "name": "imageURI",
          "type": "string"
        }
      ],
      "name": "formatTokenURI",
      "outputs": [
        {
          "internalType": "string",
          "name": "",
          "type": "string"
        }
      ],
      "stateMutability": "pure",
      "type": "function"
    },
    {
      "inputs": [
        {
          "internalType": "uint256",
          "name": "_randomness",
          "type": "uint256"
        }
      ],
      "name": "generatePath",
      "outputs": [
        {
          "internalType": "string",
          "name": "pathSvg",
          "type": "string"
        }
      ],
      "stateMutability": "view",
      "type": "function"
    },
    {
      "inputs": [
        {
          "internalType": "uint256",
          "name": "_randomness",
          "type": "uint256"
        }
      ],
      "name": "generatePathCommand",
      "outputs": [
        {
          "internalType": "string",
          "name": "pathCommand",
          "type": "string"
        }
      ],
      "stateMutability": "view",
      "type": "function"
    },
    {
      "inputs": [
        {
          "internalType": "uint256",
          "name": "_randomness",
          "type": "uint256"
        }
      ],
      "name": "generateSVG",
      "outputs": [
        {
          "internalType": "string",
          "name": "finalSvg",
          "type": "string"
        }
      ],
      "stateMutability": "view",
      "type": "function"
    },
    {
      "inputs": [
        {
          "internalType": "uint256",
          "name": "tokenId",
          "type": "uint256"
        }
      ],
      "name": "getApproved",
      "outputs": [
        {
          "internalType": "address",
          "name": "",
          "type": "address"
        }
      ],
      "stateMutability": "view",
      "type": "function"
    },
    {
      "inputs": [
        {
          "internalType": "address",
          "name": "owner",
          "type": "address"
        },
        {
          "internalType": "address",
          "name": "operator",
          "type": "address"
        }
      ],
      "name": "isApprovedForAll",
      "outputs": [
        {
          "internalType": "bool",
          "name": "",
          "type": "bool"
        }
      ],
      "stateMutability": "view",
      "type": "function"
    },
    {
      "inputs": [],
      "name": "maxNumberOfPathCommands",
      "outputs": [
        {
          "internalType": "uint256",
          "name": "",
          "type": "uint256"
        }
      ],
      "stateMutability": "view",
      "type": "function"
    },
    {
      "inputs": [],
      "name": "maxNumberOfPaths",
      "outputs": [
        {
          "internalType": "uint256",
          "name": "",
          "type": "uint256"
        }
      ],
      "stateMutability": "view",
      "type": "function"
    },
    {
      "inputs": [],
      "name": "name",
      "outputs": [
        {
          "internalType": "string",
          "name": "",
          "type": "string"
        }
      ],
      "stateMutability": "view",
      "type": "function"
    },
    {
      "inputs": [],
      "name": "owner",
      "outputs": [
        {
          "internalType": "address",
          "name": "",
          "type": "address"
        }
      ],
      "stateMutability": "view",
      "type": "function"
    },
    {
      "inputs": [
        {
          "internalType": "uint256",
          "name": "tokenId",
          "type": "uint256"
        }
      ],
      "name": "ownerOf",
      "outputs": [
        {
          "internalType": "address",
          "name": "",
          "type": "address"
        }
      ],
      "stateMutability": "view",
      "type": "function"
    },
    {
      "inputs": [
        {
          "internalType": "uint256",
          "name": "",
          "type": "uint256"
        }
      ],
      "name": "pathCommands",
      "outputs": [
        {
          "internalType": "string",
          "name": "",
          "type": "string"
        }
      ],
      "stateMutability": "view",
      "type": "function"
    },
    {
      "inputs": [
        {
          "internalType": "bytes32",
          "name": "requestId",
          "type": "bytes32"
        },
        {
          "internalType": "uint256",
          "name": "randomness",
          "type": "uint256"
        }
      ],
      "name": "rawFulfillRandomness",
      "outputs": [],
      "stateMutability": "nonpayable",
      "type": "function"
    },
    {
      "inputs": [],
      "name": "renounceOwnership",
      "outputs": [],
      "stateMutability": "nonpayable",
      "type": "function"
    },
    {
      "inputs": [
        {
          "internalType": "bytes32",
          "name": "",
          "type": "bytes32"
        }
      ],
      "name": "requestIdToSender",
      "outputs": [
        {
          "internalType": "address",
          "name": "",
          "type": "address"
        }
      ],
      "stateMutability": "view",
      "type": "function"
    },
    {
      "inputs": [
        {
          "internalType": "bytes32",
          "name": "",
          "type": "bytes32"
        }
      ],
      "name": "requestIdToTokenId",
      "outputs": [
        {
          "internalType": "uint256",
          "name": "",
          "type": "uint256"
        }
      ],
      "stateMutability": "view",
      "type": "function"
    },
    {
      "inputs": [
        {
          "internalType": "address",
          "name": "from",
          "type": "address"
        },
        {
          "internalType": "address",
          "name": "to",
          "type": "address"
        },
        {
          "internalType": "uint256",
          "name": "tokenId",
          "type": "uint256"
        }
      ],
      "name": "safeTransferFrom",
      "outputs": [],
      "stateMutability": "nonpayable",
      "type": "function"
    },
    {
      "inputs": [
        {
          "internalType": "address",
          "name": "from",
          "type": "address"
        },
        {
          "internalType": "address",
          "name": "to",
          "type": "address"
        },
        {
          "internalType": "uint256",
          "name": "tokenId",
          "type": "uint256"
        },
        {
          "internalType": "bytes",
          "name": "_data",
          "type": "bytes"
        }
      ],
      "name": "safeTransferFrom",
      "outputs": [],
      "stateMutability": "nonpayable",
      "type": "function"
    },
    {
      "inputs": [
        {
          "internalType": "address",
          "name": "operator",
          "type": "address"
        },
        {
          "internalType": "bool",
          "name": "approved",
          "type": "bool"
        }
      ],
      "name": "setApprovalForAll",
      "outputs": [],
      "stateMutability": "nonpayable",
      "type": "function"
    },
    {
      "inputs": [],
      "name": "size",
      "outputs": [
        {
          "internalType": "uint256",
          "name": "",
          "type": "uint256"
        }
      ],
      "stateMutability": "view",
      "type": "function"
    },
    {
      "inputs": [
        {
          "internalType": "bytes4",
          "name": "interfaceId",
          "type": "bytes4"
        }
      ],
      "name": "supportsInterface",
      "outputs": [
        {
          "internalType": "bool",
          "name": "",
          "type": "bool"
        }
      ],
      "stateMutability": "view",
      "type": "function"
    },
    {
      "inputs": [
        {
          "internalType": "string",
          "name": "svg",
          "type": "string"
        }
      ],
      "name": "svgToImageURI",
      "outputs": [
        {
          "internalType": "string",
          "name": "",
          "type": "string"
        }
      ],
      "stateMutability": "pure",
      "type": "function"
    },
    {
      "inputs": [],
      "name": "symbol",
      "outputs": [
        {
          "internalType": "string",
          "name": "",
          "type": "string"
        }
      ],
      "stateMutability": "view",
      "type": "function"
    },
    {
      "inputs": [],
      "name": "tokenCounter",
      "outputs": [
        {
          "internalType": "uint256",
          "name": "",
          "type": "uint256"
        }
      ],
      "stateMutability": "view",
      "type": "function"
    },
    {
      "inputs": [
        {
          "internalType": "uint256",
          "name": "",
          "type": "uint256"
        }
      ],
      "name": "tokenIdToRandomNumber",
      "outputs": [
        {
          "internalType": "uint256",
          "name": "",
          "type": "uint256"
        }
      ],
      "stateMutability": "view",
      "type": "function"
    },
    {
      "inputs": [
        {
          "internalType": "uint256",
          "name": "tokenId",
          "type": "uint256"
        }
      ],
      "name": "tokenURI",
      "outputs": [
        {
          "internalType": "string",
          "name": "",
          "type": "string"
        }
      ],
      "stateMutability": "view",
      "type": "function"
    },
    {
      "inputs": [
        {
          "internalType": "address",
          "name": "from",
          "type": "address"
        },
        {
          "internalType": "address",
          "name": "to",
          "type": "address"
        },
        {
          "internalType": "uint256",
          "name": "tokenId",
          "type": "uint256"
        }
      ],
      "name": "transferFrom",
      "outputs": [],
      "stateMutability": "nonpayable",
      "type": "function"
    },
    {
      "inputs": [
        {
          "internalType": "address",
          "name": "newOwner",
          "type": "address"
        }
      ],
      "name": "transferOwnership",
      "outputs": [],
      "stateMutability": "nonpayable",
      "type": "function"
    },
    {
      "inputs": [],
      "name": "withdraw",
      "outputs": [],
      "stateMutability": "payable",
      "type": "function"
    }
  ],
  "transactionHash": "0xda776950948251a5e402874681cfc65392f6f08a63487893ebacfb80c0d72328",
  "args": [
    "0x82aa8C8ca51e97D5413523B49c3Efd458494Bd67",
    "0x44FdC2Fc9AbA6205f39DE3Cb6182468d56d122ab",
    "0x6c3699283bda56ad74f6b855546325b68d482e983852a7a82979cc4807b641f4",
    "100000000000000000"
  ],
  "solcInputHash": "e70ccf2e64eaae3f51107afc0fd2e46e",
  "bytecode": "0x60c06040523480156200001157600080fd5b5060405162005ad138038062005ad18339818101604052810190620000379190620006b1565b83836040518060400160405280600981526020017f52616e646f6d53564700000000000000000000000000000000000000000000008152506040518060400160405280600581526020017f72734e46540000000000000000000000000000000000000000000000000000008152508160009080519060200190620000bd92919062000480565b508060019080519060200190620000d692919062000480565b5050508173ffffffffffffffffffffffffffffffffffffffff1660a08173ffffffffffffffffffffffffffffffffffffffff1660601b815250508073ffffffffffffffffffffffffffffffffffffffff1660808173ffffffffffffffffffffffffffffffffffffffff1660601b815250505050620001696200015d620003b260201b60201c565b620003ba60201b60201c565b600060098190555081600d8190555080600e81905550600a600f8190555060056010819055506101f460118190555060405180604001604052806040518060400160405280600181526020017f4d0000000000000000000000000000000000000000000000000000000000000081525081526020016040518060400160405280600181526020017f4c0000000000000000000000000000000000000000000000000000000000000081525081525060129060026200022992919062000511565b506040518060c001604052806040518060400160405280600381526020017f726564000000000000000000000000000000000000000000000000000000000081525081526020016040518060400160405280600481526020017f626c75650000000000000000000000000000000000000000000000000000000081525081526020016040518060400160405280600581526020017f677265656e00000000000000000000000000000000000000000000000000000081525081526020016040518060400160405280600681526020017f79656c6c6f77000000000000000000000000000000000000000000000000000081525081526020016040518060400160405280600581526020017f626c61636b00000000000000000000000000000000000000000000000000000081525081526020016040518060400160405280600581526020017f77686974650000000000000000000000000000000000000000000000000000008152508152506013906006620003a792919062000578565b505050505062000818565b600033905090565b6000600860009054906101000a900473ffffffffffffffffffffffffffffffffffffffff16905081600860006101000a81548173ffffffffffffffffffffffffffffffffffffffff021916908373ffffffffffffffffffffffffffffffffffffffff1602179055508173ffffffffffffffffffffffffffffffffffffffff168173ffffffffffffffffffffffffffffffffffffffff167f8be0079c531659141344cd1fd0a4f28419497f9722a3daafe3b4186f6b6457e060405160405180910390a35050565b8280546200048e9062000765565b90600052602060002090601f016020900481019282620004b25760008555620004fe565b82601f10620004cd57805160ff1916838001178555620004fe565b82800160010185558215620004fe579182015b82811115620004fd578251825591602001919060010190620004e0565b5b5090506200050d9190620005df565b5090565b82805482825590600052602060002090810192821562000565579160200282015b82811115620005645782518290805190602001906200055392919062000480565b509160200191906001019062000532565b5b509050620005749190620005fe565b5090565b828054828255906000526020600020908101928215620005cc579160200282015b82811115620005cb578251829080519060200190620005ba92919062000480565b509160200191906001019062000599565b5b509050620005db9190620005fe565b5090565b5b80821115620005fa576000816000905550600101620005e0565b5090565b5b8082111562000622576000818162000618919062000626565b50600101620005ff565b5090565b508054620006349062000765565b6000825580601f1062000648575062000669565b601f016020900490600052602060002090810190620006689190620005df565b5b50565b6000815190506200067d81620007ca565b92915050565b6000815190506200069481620007e4565b92915050565b600081519050620006ab81620007fe565b92915050565b60008060008060808587031215620006c857600080fd5b6000620006d8878288016200066c565b9450506020620006eb878288016200066c565b9350506040620006fe8782880162000683565b925050606062000711878288016200069a565b91505092959194509250565b60006200072a826200073b565b9050919050565b6000819050919050565b600073ffffffffffffffffffffffffffffffffffffffff82169050919050565b6000819050919050565b600060028204905060018216806200077e57607f821691505b602082108114156200079557620007946200079b565b5b50919050565b7f4e487b7100000000000000000000000000000000000000000000000000000000600052602260045260246000fd5b620007d5816200071d565b8114620007e157600080fd5b50565b620007ef8162000731565b8114620007fb57600080fd5b50565b62000809816200075b565b81146200081557600080fd5b50565b60805160601c60a05160601c6152866200084b600039600081816117300152612cb301526000612c7701526152866000f3fe6080604052600436106102045760003560e01c806371aee19311610118578063b88d4fde116100a0578063c87b56dd1161006f578063c87b56dd146107de578063d082e3811461081b578063e985e9c514610846578063efc81a8c14610883578063f2fde38b146108ae57610204565b8063b88d4fde14610710578063bd11f69d14610739578063c21bf36f14610776578063c68b49d1146107a157610204565b8063949d225d116100e7578063949d225d14610617578063955968d41461064257806395d89b411461067f5780639c1cd795146106aa578063a22cb465146106e757610204565b806371aee193146105495780638da5cb5b146105865780639201de55146105b157806394985ddd146105ee57610204565b806333af59891161019b578063624194c71161016a578063624194c7146104525780636352211e1461047b5780636dcee4ca146104b857806370a08231146104f5578063715018a61461053257610204565b806333af5989146103b75780633ccfd60b146103f457806342842e0e146103fe57806348e896ab1461042757610204565b8063219c0eee116101d7578063219c0eee146102d757806322881f881461031457806323b872dd1461035157806330d871c61461037a57610204565b806301ffc9a71461020957806306fdde0314610246578063081812fc14610271578063095ea7b3146102ae575b600080fd5b34801561021557600080fd5b50610230600480360381019061022b9190613822565b6108d7565b60405161023d91906140ea565b60405180910390f35b34801561025257600080fd5b5061025b6109b9565b604051610268919061418e565b60405180910390f35b34801561027d57600080fd5b50610298600480360381019061029391906138b5565b610a4b565b6040516102a59190614045565b60405180910390f35b3480156102ba57600080fd5b506102d560048036038101906102d09190613758565b610ad0565b005b3480156102e357600080fd5b506102fe60048036038101906102f991906137bd565b610be8565b60405161030b9190614045565b60405180910390f35b34801561032057600080fd5b5061033b600480360381019061033691906137bd565b610c1b565b6040516103489190614470565b60405180910390f35b34801561035d57600080fd5b5061037860048036038101906103739190613652565b610c33565b005b34801561038657600080fd5b506103a1600480360381019061039c9190613874565b610c93565b6040516103ae919061418e565b60405180910390f35b3480156103c357600080fd5b506103de60048036038101906103d991906138b5565b610d26565b6040516103eb919061418e565b60405180910390f35b6103fc610f12565b005b34801561040a57600080fd5b5061042560048036038101906104209190613652565b610fde565b005b34801561043357600080fd5b5061043c610ffe565b6040516104499190614470565b60405180910390f35b34801561045e57600080fd5b50610479600480360381019061047491906138b5565b611004565b005b34801561048757600080fd5b506104a2600480360381019061049d91906138b5565b61116d565b6040516104af9190614045565b60405180910390f35b3480156104c457600080fd5b506104df60048036038101906104da91906138b5565b61121f565b6040516104ec919061418e565b60405180910390f35b34801561050157600080fd5b5061051c600480360381019061051791906135ed565b61131b565b6040516105299190614470565b60405180910390f35b34801561053e57600080fd5b506105476113d3565b005b34801561055557600080fd5b50610570600480360381019061056b9190613874565b61145b565b60405161057d919061418e565b60405180910390f35b34801561059257600080fd5b5061059b6114ab565b6040516105a89190614045565b60405180910390f35b3480156105bd57600080fd5b506105d860048036038101906105d391906137bd565b6114d5565b6040516105e5919061418e565b60405180910390f35b3480156105fa57600080fd5b50610615600480360381019061061091906137e6565b61172e565b005b34801561062357600080fd5b5061062c6117ca565b6040516106399190614470565b60405180910390f35b34801561064e57600080fd5b50610669600480360381019061066491906138b5565b6117d0565b604051610676919061418e565b60405180910390f35b34801561068b57600080fd5b5061069461187c565b6040516106a1919061418e565b60405180910390f35b3480156106b657600080fd5b506106d160048036038101906106cc91906138b5565b61190e565b6040516106de9190614470565b60405180910390f35b3480156106f357600080fd5b5061070e6004803603810190610709919061371c565b611926565b005b34801561071c57600080fd5b50610737600480360381019061073291906136a1565b61193c565b005b34801561074557600080fd5b50610760600480360381019061075b91906138b5565b61199e565b60405161076d919061418e565b60405180910390f35b34801561078257600080fd5b5061078b611a4a565b6040516107989190614470565b60405180910390f35b3480156107ad57600080fd5b506107c860048036038101906107c391906138b5565b611a50565b6040516107d5919061418e565b60405180910390f35b3480156107ea57600080fd5b50610805600480360381019061080091906138b5565b611c0f565b604051610812919061418e565b60405180910390f35b34801561082757600080fd5b50610830611d61565b60405161083d9190614470565b60405180910390f35b34801561085257600080fd5b5061086d60048036038101906108689190613616565b611d67565b60405161087a91906140ea565b60405180910390f35b34801561088f57600080fd5b50610898611dfb565b6040516108a59190614105565b60405180910390f35b3480156108ba57600080fd5b506108d560048036038101906108d091906135ed565b611ec5565b005b60007f80ac58cd000000000000000000000000000000000000000000000000000000007bffffffffffffffffffffffffffffffffffffffffffffffffffffffff1916827bffffffffffffffffffffffffffffffffffffffffffffffffffffffff191614806109a257507f5b5e139f000000000000000000000000000000000000000000000000000000007bffffffffffffffffffffffffffffffffffffffffffffffffffffffff1916827bffffffffffffffffffffffffffffffffffffffffffffffffffffffff1916145b806109b257506109b182611fbd565b5b9050919050565b6060600080546109c890614797565b80601f01602080910402602001604051908101604052809291908181526020018280546109f490614797565b8015610a415780601f10610a1657610100808354040283529160200191610a41565b820191906000526020600020905b815481529060010190602001808311610a2457829003601f168201915b5050505050905090565b6000610a5682612027565b610a95576040517f08c379a0000000000000000000000000000000000000000000000000000000008152600401610a8c90614390565b60405180910390fd5b6004600083815260200190815260200160002060009054906101000a900473ffffffffffffffffffffffffffffffffffffffff169050919050565b6000610adb8261116d565b90508073ffffffffffffffffffffffffffffffffffffffff168373ffffffffffffffffffffffffffffffffffffffff161415610b4c576040517f08c379a0000000000000000000000000000000000000000000000000000000008152600401610b4390614430565b60405180910390fd5b8073ffffffffffffffffffffffffffffffffffffffff16610b6b612093565b73ffffffffffffffffffffffffffffffffffffffff161480610b9a5750610b9981610b94612093565b611d67565b5b610bd9576040517f08c379a0000000000000000000000000000000000000000000000000000000008152600401610bd0906142b0565b60405180910390fd5b610be3838361209b565b505050565b600a6020528060005260406000206000915054906101000a900473ffffffffffffffffffffffffffffffffffffffff1681565b600c6020528060005260406000206000915090505481565b610c44610c3e612093565b82612154565b610c83576040517f08c379a0000000000000000000000000000000000000000000000000000000008152600401610c7a90614450565b60405180910390fd5b610c8e838383612232565b505050565b606060006040518060400160405280601a81526020017f646174613a696d6167652f7376672b786d6c3b6261736536342c00000000000081525090506000610cf984604051602001610ce59190613ebd565b60405160208183030381529060405261248e565b90508181604051602001610d0e929190613ed4565b60405160208183030381529060405292505050919050565b60606000600160105484610d3a9190614881565b610d44919061457e565b90506040518060400160405280600981526020017f3c7061746820643d270000000000000000000000000000000000000000000000815250915060005b81811015610e06576000610dcc8583601154610d9d919061457e565b604051602001610dae92919061448b565b6040516020818303038152906040528051906020012060001c611a50565b90508381604051602001610de1929190613ed4565b6040516020818303038152906040529350508080610dfe906147fa565b915050610d81565b5060006013808054905085610e1b9190614881565b81548110610e52577f4e487b7100000000000000000000000000000000000000000000000000000000600052603260045260246000fd5b906000526020600020018054610e6790614797565b80601f0160208091040260200160405190810160405280929190818152602001828054610e9390614797565b8015610ee05780601f10610eb557610100808354040283529160200191610ee0565b820191906000526020600020905b815481529060010190602001808311610ec357829003601f168201915b505050505090508281604051602001610efa929190613ef8565b60405160208183030381529060405292505050919050565b610f1a612093565b73ffffffffffffffffffffffffffffffffffffffff16610f386114ab565b73ffffffffffffffffffffffffffffffffffffffff1614610f8e576040517f08c379a0000000000000000000000000000000000000000000000000000000008152600401610f85906143b0565b60405180910390fd5b610f966114ab565b73ffffffffffffffffffffffffffffffffffffffff166108fc479081150290604051600060405180830381858888f19350505050158015610fdb573d6000803e3d6000fd5b50565b610ff98383836040518060200160405280600081525061193c565b505050565b60105481565b600061100f82611c0f565b511115611051576040517f08c379a000000000000000000000000000000000000000000000000000000000815260040161104890614270565b60405180910390fd5b8060095411611095576040517f08c379a000000000000000000000000000000000000000000000000000000000815260040161108c90614330565b60405180910390fd5b6000600b600083815260200190815260200160002054116110eb576040517f08c379a00000000000000000000000000000000000000000000000000000000081526004016110e290614210565b60405180910390fd5b6000600b6000838152602001908152602001600020549050600061110e8261121f565b9050600061111b82610c93565b905061112f8461112a8361145b565b61262d565b837f15a6487b7915a7116ce2a61d43b17e9b47484b1931f3c79f2f3d139b307b38938360405161115f919061418e565b60405180910390a250505050565b6000806002600084815260200190815260200160002060009054906101000a900473ffffffffffffffffffffffffffffffffffffffff169050600073ffffffffffffffffffffffffffffffffffffffff168173ffffffffffffffffffffffffffffffffffffffff161415611216576040517f08c379a000000000000000000000000000000000000000000000000000000000815260040161120d906142f0565b60405180910390fd5b80915050919050565b606060006001600f54846112339190614881565b61123d919061457e565b905061124a6011546126a1565b6112556011546126a1565b604051602001611266929190613fde565b604051602081830303815290604052915060005b818110156112f25760006112b8858360405160200161129a92919061448b565b6040516020818303038152906040528051906020012060001c610d26565b905083816040516020016112cd929190613ed4565b60405160208183030381529060405293505080806112ea906147fa565b91505061127a565b50816040516020016113049190613f79565b604051602081830303815290604052915050919050565b60008073ffffffffffffffffffffffffffffffffffffffff168273ffffffffffffffffffffffffffffffffffffffff16141561138c576040517f08c379a0000000000000000000000000000000000000000000000000000000008152600401611383906142d0565b60405180910390fd5b600360008373ffffffffffffffffffffffffffffffffffffffff1673ffffffffffffffffffffffffffffffffffffffff168152602001908152602001600020549050919050565b6113db612093565b73ffffffffffffffffffffffffffffffffffffffff166113f96114ab565b73ffffffffffffffffffffffffffffffffffffffff161461144f576040517f08c379a0000000000000000000000000000000000000000000000000000000008152600401611446906143b0565b60405180910390fd5b6114596000612876565b565b6060611485826040516020016114719190613f9b565b60405160208183030381529060405261248e565b6040516020016114959190614023565b6040516020818303038152906040529050919050565b6000600860009054906101000a900473ffffffffffffffffffffffffffffffffffffffff16905090565b606060005b60208160ff161080156115525750600060f81b838260ff1660208110611529577f4e487b7100000000000000000000000000000000000000000000000000000000600052603260045260246000fd5b1a60f81b7effffffffffffffffffffffffffffffffffffffffffffffffffffffffffffff191614155b1561156a57808061156290614843565b9150506114da565b60008160ff1667ffffffffffffffff8111156115af577f4e487b7100000000000000000000000000000000000000000000000000000000600052604160045260246000fd5b6040519080825280601f01601f1916602001820160405280156115e15781602001600182028036833780820191505090505b509050600091505b60208260ff161080156116615750600060f81b848360ff1660208110611638577f4e487b7100000000000000000000000000000000000000000000000000000000600052603260045260246000fd5b1a60f81b7effffffffffffffffffffffffffffffffffffffffffffffffffffffffffffff191614155b1561172457838260ff16602081106116a2577f4e487b7100000000000000000000000000000000000000000000000000000000600052603260045260246000fd5b1a60f81b818360ff16815181106116e2577f4e487b7100000000000000000000000000000000000000000000000000000000600052603260045260246000fd5b60200101907effffffffffffffffffffffffffffffffffffffffffffffffffffffffffffff1916908160001a905350818061171c90614843565b9250506115e9565b8092505050919050565b7f000000000000000000000000000000000000000000000000000000000000000073ffffffffffffffffffffffffffffffffffffffff163373ffffffffffffffffffffffffffffffffffffffff16146117bc576040517f08c379a00000000000000000000000000000000000000000000000000000000081526004016117b390614410565b60405180910390fd5b6117c6828261293c565b5050565b60115481565b601281815481106117e057600080fd5b9060005260206000200160009150905080546117fb90614797565b80601f016020809104026020016040519081016040528092919081815260200182805461182790614797565b80156118745780601f1061184957610100808354040283529160200191611874565b820191906000526020600020905b81548152906001019060200180831161185757829003601f168201915b505050505081565b60606001805461188b90614797565b80601f01602080910402602001604051908101604052809291908181526020018280546118b790614797565b80156119045780601f106118d957610100808354040283529160200191611904565b820191906000526020600020905b8154815290600101906020018083116118e757829003601f168201915b5050505050905090565b600b6020528060005260406000206000915090505481565b611938611931612093565b83836129ec565b5050565b61194d611947612093565b83612154565b61198c576040517f08c379a000000000000000000000000000000000000000000000000000000000815260040161198390614450565b60405180910390fd5b61199884848484612b59565b50505050565b601381815481106119ae57600080fd5b9060005260206000200160009150905080546119c990614797565b80601f01602080910402602001604051908101604052809291908181526020018280546119f590614797565b8015611a425780601f10611a1757610100808354040283529160200191611a42565b820191906000526020600020905b815481529060010190602001808311611a2557829003601f168201915b505050505081565b600f5481565b60606012808054905083611a649190614881565b81548110611a9b577f4e487b7100000000000000000000000000000000000000000000000000000000600052603260045260246000fd5b906000526020600020018054611ab090614797565b80601f0160208091040260200160405190810160405280929190818152602001828054611adc90614797565b8015611b295780601f10611afe57610100808354040283529160200191611b29565b820191906000526020600020905b815481529060010190602001808311611b0c57829003601f168201915b505050505090506000601154836002601154611b45919061463c565b604051602001611b5692919061448b565b6040516020818303038152906040528051906020012060001c611b799190614881565b905060006011548460016002601154611b92919061463c565b611b9c919061457e565b604051602001611bad92919061448b565b6040516020818303038152906040528051906020012060001c611bd09190614881565b905082611bdc836126a1565b611be5836126a1565b604051602001611bf793929190613f32565b60405160208183030381529060405292505050919050565b6060611c1a82612027565b611c59576040517f08c379a0000000000000000000000000000000000000000000000000000000008152600401611c5090614370565b60405180910390fd5b6000600660008481526020019081526020016000208054611c7990614797565b80601f0160208091040260200160405190810160405280929190818152602001828054611ca590614797565b8015611cf25780601f10611cc757610100808354040283529160200191611cf2565b820191906000526020600020905b815481529060010190602001808311611cd557829003601f168201915b505050505090506000611d03612bb5565b9050600081511415611d19578192505050611d5c565b600082511115611d4e578082604051602001611d36929190613ed4565b60405160208183030381529060405292505050611d5c565b611d5784612bcc565b925050505b919050565b60095481565b6000600560008473ffffffffffffffffffffffffffffffffffffffff1673ffffffffffffffffffffffffffffffffffffffff16815260200190815260200160002060008373ffffffffffffffffffffffffffffffffffffffff1673ffffffffffffffffffffffffffffffffffffffff16815260200190815260200160002060009054906101000a900460ff16905092915050565b6000611e0b600d54600e54612c73565b905033600a600083815260200190815260200160002060006101000a81548173ffffffffffffffffffffffffffffffffffffffff021916908373ffffffffffffffffffffffffffffffffffffffff1602179055506000600954905080600c6000848152602001908152602001600020819055506001600954611e8d919061457e565b60098190555080827fb97343f1f2afc4959f818046ccae28fd7b05fcd2b7a7dc651cbb52a096cae03560405160405180910390a35090565b611ecd612093565b73ffffffffffffffffffffffffffffffffffffffff16611eeb6114ab565b73ffffffffffffffffffffffffffffffffffffffff1614611f41576040517f08c379a0000000000000000000000000000000000000000000000000000000008152600401611f38906143b0565b60405180910390fd5b600073ffffffffffffffffffffffffffffffffffffffff168173ffffffffffffffffffffffffffffffffffffffff161415611fb1576040517f08c379a0000000000000000000000000000000000000000000000000000000008152600401611fa8906141d0565b60405180910390fd5b611fba81612876565b50565b60007f01ffc9a7000000000000000000000000000000000000000000000000000000007bffffffffffffffffffffffffffffffffffffffffffffffffffffffff1916827bffffffffffffffffffffffffffffffffffffffffffffffffffffffff1916149050919050565b60008073ffffffffffffffffffffffffffffffffffffffff166002600084815260200190815260200160002060009054906101000a900473ffffffffffffffffffffffffffffffffffffffff1673ffffffffffffffffffffffffffffffffffffffff1614159050919050565b600033905090565b816004600083815260200190815260200160002060006101000a81548173ffffffffffffffffffffffffffffffffffffffff021916908373ffffffffffffffffffffffffffffffffffffffff160217905550808273ffffffffffffffffffffffffffffffffffffffff1661210e8361116d565b73ffffffffffffffffffffffffffffffffffffffff167f8c5be1e5ebec7d5bd14f71427d1e84f3dd0314c0f7b2291e5b200ac8c7c3b92560405160405180910390a45050565b600061215f82612027565b61219e576040517f08c379a000000000000000000000000000000000000000000000000000000000815260040161219590614290565b60405180910390fd5b60006121a98361116d565b90508073ffffffffffffffffffffffffffffffffffffffff168473ffffffffffffffffffffffffffffffffffffffff16148061221857508373ffffffffffffffffffffffffffffffffffffffff1661220084610a4b565b73ffffffffffffffffffffffffffffffffffffffff16145b8061222957506122288185611d67565b5b91505092915050565b8273ffffffffffffffffffffffffffffffffffffffff166122528261116d565b73ffffffffffffffffffffffffffffffffffffffff16146122a8576040517f08c379a000000000000000000000000000000000000000000000000000000000815260040161229f906143d0565b60405180910390fd5b600073ffffffffffffffffffffffffffffffffffffffff168273ffffffffffffffffffffffffffffffffffffffff161415612318576040517f08c379a000000000000000000000000000000000000000000000000000000000815260040161230f90614230565b60405180910390fd5b612323838383612dd5565b61232e60008261209b565b6001600360008573ffffffffffffffffffffffffffffffffffffffff1673ffffffffffffffffffffffffffffffffffffffff168152602001908152602001600020600082825461237e9190614696565b925050819055506001600360008473ffffffffffffffffffffffffffffffffffffffff1673ffffffffffffffffffffffffffffffffffffffff16815260200190815260200160002060008282546123d5919061457e565b92505081905550816002600083815260200190815260200160002060006101000a81548173ffffffffffffffffffffffffffffffffffffffff021916908373ffffffffffffffffffffffffffffffffffffffff160217905550808273ffffffffffffffffffffffffffffffffffffffff168473ffffffffffffffffffffffffffffffffffffffff167fddf252ad1be2c89b69c2b068fc378daa952ba7f163c4a11628f55a4df523b3ef60405160405180910390a4505050565b60606000825114156124b157604051806020016040528060008152509050612628565b600060405180606001604052806040815260200161521160409139905060006003600285516124e0919061457e565b6124ea919061460b565b60046124f6919061463c565b90506000602082612507919061457e565b67ffffffffffffffff811115612546577f4e487b7100000000000000000000000000000000000000000000000000000000600052604160045260246000fd5b6040519080825280601f01601f1916602001820160405280156125785781602001600182028036833780820191505090505b509050818152600183018586518101602084015b818310156125e7576003830192508251603f8160121c168501518253600182019150603f81600c1c168501518253600182019150603f8160061c168501518253600182019150603f811685015182536001820191505061258c565b60038951066001811461260157600281146126115761261c565b613d3d60f01b600283035261261c565b603d60f81b60018303525b50505050508093505050505b919050565b61263682612027565b612675576040517f08c379a000000000000000000000000000000000000000000000000000000000815260040161266c90614310565b60405180910390fd5b8060066000848152602001908152602001600020908051906020019061269c9291906133e7565b505050565b606060008214156126e9576040518060400160405280600181526020017f30000000000000000000000000000000000000000000000000000000000000008152509050612871565b600082905060005b6000821461271b578080612704906147fa565b915050600a82612714919061460b565b91506126f1565b60008167ffffffffffffffff81111561275d577f4e487b7100000000000000000000000000000000000000000000000000000000600052604160045260246000fd5b6040519080825280601f01601f19166020018201604052801561278f5781602001600182028036833780820191505090505b50905060008290505b60008614612869576001816127ad9190614696565b90506000600a80886127bf919061460b565b6127c9919061463c565b876127d49190614696565b60306127e091906145d4565b905060008160f81b905080848481518110612824577f4e487b7100000000000000000000000000000000000000000000000000000000600052603260045260246000fd5b60200101907effffffffffffffffffffffffffffffffffffffffffffffffffffffffffffff1916908160001a905350600a88612860919061460b565b97505050612798565b819450505050505b919050565b6000600860009054906101000a900473ffffffffffffffffffffffffffffffffffffffff16905081600860006101000a81548173ffffffffffffffffffffffffffffffffffffffff021916908373ffffffffffffffffffffffffffffffffffffffff1602179055508173ffffffffffffffffffffffffffffffffffffffff168173ffffffffffffffffffffffffffffffffffffffff167f8be0079c531659141344cd1fd0a4f28419497f9722a3daafe3b4186f6b6457e060405160405180910390a35050565b6000600a600084815260200190815260200160002060009054906101000a900473ffffffffffffffffffffffffffffffffffffffff1690506000600c60008581526020019081526020016000205490506129968282612dda565b82600b600083815260200190815260200160002081905550807faad5362ce528ed941024b95d4c18dfd49b8503e1f586a5c353631d98c2af41b7846040516129de9190614470565b60405180910390a250505050565b8173ffffffffffffffffffffffffffffffffffffffff168373ffffffffffffffffffffffffffffffffffffffff161415612a5b576040517f08c379a0000000000000000000000000000000000000000000000000000000008152600401612a5290614250565b60405180910390fd5b80600560008573ffffffffffffffffffffffffffffffffffffffff1673ffffffffffffffffffffffffffffffffffffffff16815260200190815260200160002060008473ffffffffffffffffffffffffffffffffffffffff1673ffffffffffffffffffffffffffffffffffffffff16815260200190815260200160002060006101000a81548160ff0219169083151502179055508173ffffffffffffffffffffffffffffffffffffffff168373ffffffffffffffffffffffffffffffffffffffff167f17307eab39ab6107e8899845ad3d59bd9653f200f220920489ca2b5937696c3183604051612b4c91906140ea565b60405180910390a3505050565b612b64848484612232565b612b7084848484612df8565b612baf576040517f08c379a0000000000000000000000000000000000000000000000000000000008152600401612ba6906141b0565b60405180910390fd5b50505050565b606060405180602001604052806000815250905090565b6060612bd782612027565b612c16576040517f08c379a0000000000000000000000000000000000000000000000000000000008152600401612c0d906143f0565b60405180910390fd5b6000612c20612bb5565b90506000815111612c405760405180602001604052806000815250612c6b565b80612c4a84612f8f565b604051602001612c5b929190613ed4565b6040516020818303038152906040525b915050919050565b60007f000000000000000000000000000000000000000000000000000000000000000073ffffffffffffffffffffffffffffffffffffffff16634000aea07f000000000000000000000000000000000000000000000000000000000000000084866000604051602001612ce7929190614120565b6040516020818303038152906040526040518463ffffffff1660e01b8152600401612d14939291906140ac565b602060405180830381600087803b158015612d2e57600080fd5b505af1158015612d42573d6000803e3d6000fd5b505050506040513d601f19601f82011682018060405250810190612d669190613794565b506000612d8984600030600760008981526020019081526020016000205461313c565b905060016007600086815260200190815260200160002054612dab919061457e565b6007600086815260200190815260200160002081905550612dcc8482613178565b91505092915050565b505050565b612df48282604051806020016040528060008152506131ab565b5050565b6000612e198473ffffffffffffffffffffffffffffffffffffffff16613206565b15612f82578373ffffffffffffffffffffffffffffffffffffffff1663150b7a02612e42612093565b8786866040518563ffffffff1660e01b8152600401612e649493929190614060565b602060405180830381600087803b158015612e7e57600080fd5b505af1925050508015612eaf57506040513d601f19601f82011682018060405250810190612eac919061384b565b60015b612f32573d8060008114612edf576040519150601f19603f3d011682016040523d82523d6000602084013e612ee4565b606091505b50600081511415612f2a576040517f08c379a0000000000000000000000000000000000000000000000000000000008152600401612f21906141b0565b60405180910390fd5b805181602001fd5b63150b7a0260e01b7bffffffffffffffffffffffffffffffffffffffffffffffffffffffff1916817bffffffffffffffffffffffffffffffffffffffffffffffffffffffff191614915050612f87565b600190505b949350505050565b60606000821415612fd7576040518060400160405280600181526020017f30000000000000000000000000000000000000000000000000000000000000008152509050613137565b600082905060005b60008214613009578080612ff2906147fa565b915050600a82613002919061460b565b9150612fdf565b60008167ffffffffffffffff81111561304b577f4e487b7100000000000000000000000000000000000000000000000000000000600052604160045260246000fd5b6040519080825280601f01601f19166020018201604052801561307d5781602001600182028036833780820191505090505b5090505b60008514613130576001826130969190614696565b9150600a856130a59190614881565b60306130b1919061457e565b60f81b8183815181106130ed577f4e487b7100000000000000000000000000000000000000000000000000000000600052603260045260246000fd5b60200101907effffffffffffffffffffffffffffffffffffffffffffffffffffffffffffff1916908160001a905350600a85613129919061460b565b9450613081565b8093505050505b919050565b6000848484846040516020016131559493929190614149565b6040516020818303038152906040528051906020012060001c9050949350505050565b6000828260405160200161318d929190613e91565b60405160208183030381529060405280519060200120905092915050565b6131b58383613219565b6131c26000848484612df8565b613201576040517f08c379a00000000000000000000000000000000000000000000000000000000081526004016131f8906141b0565b60405180910390fd5b505050565b600080823b905060008111915050919050565b600073ffffffffffffffffffffffffffffffffffffffff168273ffffffffffffffffffffffffffffffffffffffff161415613289576040517f08c379a000000000000000000000000000000000000000000000000000000000815260040161328090614350565b60405180910390fd5b61329281612027565b156132d2576040517f08c379a00000000000000000000000000000000000000000000000000000000081526004016132c9906141f0565b60405180910390fd5b6132de60008383612dd5565b6001600360008473ffffffffffffffffffffffffffffffffffffffff1673ffffffffffffffffffffffffffffffffffffffff168152602001908152602001600020600082825461332e919061457e565b92505081905550816002600083815260200190815260200160002060006101000a81548173ffffffffffffffffffffffffffffffffffffffff021916908373ffffffffffffffffffffffffffffffffffffffff160217905550808273ffffffffffffffffffffffffffffffffffffffff16600073ffffffffffffffffffffffffffffffffffffffff167fddf252ad1be2c89b69c2b068fc378daa952ba7f163c4a11628f55a4df523b3ef60405160405180910390a45050565b8280546133f390614797565b90600052602060002090601f016020900481019282613415576000855561345c565b82601f1061342e57805160ff191683800117855561345c565b8280016001018555821561345c579182015b8281111561345b578251825591602001919060010190613440565b5b509050613469919061346d565b5090565b5b8082111561348657600081600090555060010161346e565b5090565b600061349d613498846144d9565b6144b4565b9050828152602081018484840111156134b557600080fd5b6134c0848285614755565b509392505050565b60006134db6134d68461450a565b6144b4565b9050828152602081018484840111156134f357600080fd5b6134fe848285614755565b509392505050565b6000813590506135158161519d565b92915050565b60008135905061352a816151b4565b92915050565b60008151905061353f816151b4565b92915050565b600081359050613554816151cb565b92915050565b600081359050613569816151e2565b92915050565b60008151905061357e816151e2565b92915050565b600082601f83011261359557600080fd5b81356135a584826020860161348a565b91505092915050565b600082601f8301126135bf57600080fd5b81356135cf8482602086016134c8565b91505092915050565b6000813590506135e7816151f9565b92915050565b6000602082840312156135ff57600080fd5b600061360d84828501613506565b91505092915050565b6000806040838503121561362957600080fd5b600061363785828601613506565b925050602061364885828601613506565b9150509250929050565b60008060006060848603121561366757600080fd5b600061367586828701613506565b935050602061368686828701613506565b9250506040613697868287016135d8565b9150509250925092565b600080600080608085870312156136b757600080fd5b60006136c587828801613506565b94505060206136d687828801613506565b93505060406136e7878288016135d8565b925050606085013567ffffffffffffffff81111561370457600080fd5b61371087828801613584565b91505092959194509250565b6000806040838503121561372f57600080fd5b600061373d85828601613506565b925050602061374e8582860161351b565b9150509250929050565b6000806040838503121561376b57600080fd5b600061377985828601613506565b925050602061378a858286016135d8565b9150509250929050565b6000602082840312156137a657600080fd5b60006137b484828501613530565b91505092915050565b6000602082840312156137cf57600080fd5b60006137dd84828501613545565b91505092915050565b600080604083850312156137f957600080fd5b600061380785828601613545565b9250506020613818858286016135d8565b9150509250929050565b60006020828403121561383457600080fd5b60006138428482850161355a565b91505092915050565b60006020828403121561385d57600080fd5b600061386b8482850161356f565b91505092915050565b60006020828403121561388657600080fd5b600082013567ffffffffffffffff8111156138a057600080fd5b6138ac848285016135ae565b91505092915050565b6000602082840312156138c757600080fd5b60006138d5848285016135d8565b91505092915050565b6138e7816146ca565b82525050565b6138f6816146dc565b82525050565b613905816146e8565b82525050565b61391c613917826146e8565b61486d565b82525050565b600061392d8261453b565b6139378185614551565b9350613947818560208601614764565b6139508161496e565b840191505092915050565b600061396682614546565b6139708185614562565b9350613980818560208601614764565b6139898161496e565b840191505092915050565b600061399f82614546565b6139a98185614573565b93506139b9818560208601614764565b80840191505092915050565b60006139d2600983614573565b91506139dd8261497f565b600982019050919050565b60006139f5603283614562565b9150613a00826149a8565b604082019050919050565b6000613a18602683614562565b9150613a23826149f7565b604082019050919050565b6000613a3b601c83614562565b9150613a4682614a46565b602082019050919050565b6000613a5e602f83614562565b9150613a6982614a6f565b604082019050919050565b6000613a81602483614562565b9150613a8c82614abe565b604082019050919050565b6000613aa4601983614562565b9150613aaf82614b0d565b602082019050919050565b6000613ac7601883614562565b9150613ad282614b36565b602082019050919050565b6000613aea602c83614562565b9150613af582614b5f565b604082019050919050565b6000613b0d601d83614573565b9150613b1882614bae565b601d82019050919050565b6000613b30600183614573565b9150613b3b82614bd7565b600182019050919050565b6000613b53600383614573565b9150613b5e82614c00565b600382019050919050565b6000613b76600783614573565b9150613b8182614c29565b600782019050919050565b6000613b99603883614562565b9150613ba482614c52565b604082019050919050565b6000613bbc602a83614562565b9150613bc782614ca1565b604082019050919050565b6000613bdf602983614562565b9150613bea82614cf0565b604082019050919050565b6000613c02602e83614562565b9150613c0d82614d3f565b604082019050919050565b6000613c25602083614562565b9150613c3082614d8e565b602082019050919050565b6000613c48600283614573565b9150613c5382614db7565b600282019050919050565b6000613c6b602083614562565b9150613c7682614de0565b602082019050919050565b6000613c8e603183614562565b9150613c9982614e09565b604082019050919050565b6000613cb1602c83614562565b9150613cbc82614e58565b604082019050919050565b6000613cd4602083614562565b9150613cdf82614ea7565b602082019050919050565b6000613cf7602983614562565b9150613d0282614ed0565b604082019050919050565b6000613d1a603083614573565b9150613d2582614f1f565b603082019050919050565b6000613d3d602f83614562565b9150613d4882614f6e565b604082019050919050565b6000613d60601f83614562565b9150613d6b82614fbd565b602082019050919050565b6000613d83604383614573565b9150613d8e82614fe6565b604382019050919050565b6000613da6602183614562565b9150613db18261505b565b604082019050919050565b6000613dc9601d83614573565b9150613dd4826150aa565b601d82019050919050565b6000613dec603183614562565b9150613df7826150d3565b604082019050919050565b6000613e0f600283614573565b9150613e1a82615122565b600282019050919050565b6000613e32600683614573565b9150613e3d8261514b565b600682019050919050565b6000613e55600983614573565b9150613e6082615174565b600982019050919050565b613e748161473e565b82525050565b613e8b613e868261473e565b614877565b82525050565b6000613e9d828561390b565b602082019150613ead8284613e7a565b6020820191508190509392505050565b6000613ec98284613994565b915081905092915050565b6000613ee08285613994565b9150613eec8284613994565b91508190509392505050565b6000613f048285613994565b9150613f0f82613b00565b9150613f1b8284613994565b9150613f2682613b46565b91508190509392505050565b6000613f3e8286613994565b9150613f4982613b23565b9150613f558285613994565b9150613f6082613b23565b9150613f6c8284613994565b9150819050949350505050565b6000613f858284613994565b9150613f9082613e25565b915081905092915050565b6000613fa6826139c5565b9150613fb182613b69565b9150613fbc82613d76565b9150613fc88284613994565b9150613fd382613c3b565b915081905092915050565b6000613fe982613d0d565b9150613ff58285613994565b915061400082613e48565b915061400c8284613994565b915061401782613e02565b91508190509392505050565b600061402e82613dbc565b915061403a8284613994565b915081905092915050565b600060208201905061405a60008301846138de565b92915050565b600060808201905061407560008301876138de565b61408260208301866138de565b61408f6040830185613e6b565b81810360608301526140a18184613922565b905095945050505050565b60006060820190506140c160008301866138de565b6140ce6020830185613e6b565b81810360408301526140e08184613922565b9050949350505050565b60006020820190506140ff60008301846138ed565b92915050565b600060208201905061411a60008301846138fc565b92915050565b600060408201905061413560008301856138fc565b6141426020830184613e6b565b9392505050565b600060808201905061415e60008301876138fc565b61416b6020830186613e6b565b61417860408301856138de565b6141856060830184613e6b565b95945050505050565b600060208201905081810360008301526141a8818461395b565b905092915050565b600060208201905081810360008301526141c9816139e8565b9050919050565b600060208201905081810360008301526141e981613a0b565b9050919050565b6000602082019050818103600083015261420981613a2e565b9050919050565b6000602082019050818103600083015261422981613a51565b9050919050565b6000602082019050818103600083015261424981613a74565b9050919050565b6000602082019050818103600083015261426981613a97565b9050919050565b6000602082019050818103600083015261428981613aba565b9050919050565b600060208201905081810360008301526142a981613add565b9050919050565b600060208201905081810360008301526142c981613b8c565b9050919050565b600060208201905081810360008301526142e981613baf565b9050919050565b6000602082019050818103600083015261430981613bd2565b9050919050565b6000602082019050818103600083015261432981613bf5565b9050919050565b6000602082019050818103600083015261434981613c18565b9050919050565b6000602082019050818103600083015261436981613c5e565b9050919050565b6000602082019050818103600083015261438981613c81565b9050919050565b600060208201905081810360008301526143a981613ca4565b9050919050565b600060208201905081810360008301526143c981613cc7565b9050919050565b600060208201905081810360008301526143e981613cea565b9050919050565b6000602082019050818103600083015261440981613d30565b9050919050565b6000602082019050818103600083015261442981613d53565b9050919050565b6000602082019050818103600083015261444981613d99565b9050919050565b6000602082019050818103600083015261446981613ddf565b9050919050565b60006020820190506144856000830184613e6b565b92915050565b60006040820190506144a06000830185613e6b565b6144ad6020830184613e6b565b9392505050565b60006144be6144cf565b90506144ca82826147c9565b919050565b6000604051905090565b600067ffffffffffffffff8211156144f4576144f361493f565b5b6144fd8261496e565b9050602081019050919050565b600067ffffffffffffffff8211156145255761452461493f565b5b61452e8261496e565b9050602081019050919050565b600081519050919050565b600081519050919050565b600082825260208201905092915050565b600082825260208201905092915050565b600081905092915050565b60006145898261473e565b91506145948361473e565b9250827fffffffffffffffffffffffffffffffffffffffffffffffffffffffffffffffff038211156145c9576145c86148b2565b5b828201905092915050565b60006145df82614748565b91506145ea83614748565b92508260ff03821115614600576145ff6148b2565b5b828201905092915050565b60006146168261473e565b91506146218361473e565b925082614631576146306148e1565b5b828204905092915050565b60006146478261473e565b91506146528361473e565b9250817fffffffffffffffffffffffffffffffffffffffffffffffffffffffffffffffff048311821515161561468b5761468a6148b2565b5b828202905092915050565b60006146a18261473e565b91506146ac8361473e565b9250828210156146bf576146be6148b2565b5b828203905092915050565b60006146d58261471e565b9050919050565b60008115159050919050565b6000819050919050565b60007fffffffff0000000000000000000000000000000000000000000000000000000082169050919050565b600073ffffffffffffffffffffffffffffffffffffffff82169050919050565b6000819050919050565b600060ff82169050919050565b82818337600083830152505050565b60005b83811015614782578082015181840152602081019050614767565b83811115614791576000848401525b50505050565b600060028204905060018216806147af57607f821691505b602082108114156147c3576147c2614910565b5b50919050565b6147d28261496e565b810181811067ffffffffffffffff821117156147f1576147f061493f565b5b80604052505050565b60006148058261473e565b91507fffffffffffffffffffffffffffffffffffffffffffffffffffffffffffffffff821415614838576148376148b2565b5b600182019050919050565b600061484e82614748565b915060ff821415614862576148616148b2565b5b600182019050919050565b6000819050919050565b6000819050919050565b600061488c8261473e565b91506148978361473e565b9250826148a7576148a66148e1565b5b828206905092915050565b7f4e487b7100000000000000000000000000000000000000000000000000000000600052601160045260246000fd5b7f4e487b7100000000000000000000000000000000000000000000000000000000600052601260045260246000fd5b7f4e487b7100000000000000000000000000000000000000000000000000000000600052602260045260246000fd5b7f4e487b7100000000000000000000000000000000000000000000000000000000600052604160045260246000fd5b6000601f19601f8301169050919050565b7f7b226e616d65223a220000000000000000000000000000000000000000000000600082015250565b7f4552433732313a207472616e7366657220746f206e6f6e20455243373231526560008201527f63656976657220696d706c656d656e7465720000000000000000000000000000602082015250565b7f4f776e61626c653a206e6577206f776e657220697320746865207a65726f206160008201527f6464726573730000000000000000000000000000000000000000000000000000602082015250565b7f4552433732313a20746f6b656e20616c7265616479206d696e74656400000000600082015250565b7f4e65656420746f207761697420666f722074686520436861696e6c696e6b206e60008201527f6f646520746f20726573706f6e64210000000000000000000000000000000000602082015250565b7f4552433732313a207472616e7366657220746f20746865207a65726f2061646460008201527f7265737300000000000000000000000000000000000000000000000000000000602082015250565b7f4552433732313a20617070726f766520746f2063616c6c657200000000000000600082015250565b7f746f6b656e55524920697320616c726561647920736574210000000000000000600082015250565b7f4552433732313a206f70657261746f7220717565727920666f72206e6f6e657860008201527f697374656e7420746f6b656e0000000000000000000000000000000000000000602082015250565b7f272066696c6c3d277472616e73706172656e7427207374726f6b653d27000000600082015250565b7f2000000000000000000000000000000000000000000000000000000000000000600082015250565b7f272f3e0000000000000000000000000000000000000000000000000000000000600082015250565b7f535647204e465400000000000000000000000000000000000000000000000000600082015250565b7f4552433732313a20617070726f76652063616c6c6572206973206e6f74206f7760008201527f6e6572206e6f7220617070726f76656420666f7220616c6c0000000000000000602082015250565b7f4552433732313a2062616c616e636520717565727920666f7220746865207a6560008201527f726f206164647265737300000000000000000000000000000000000000000000602082015250565b7f4552433732313a206f776e657220717565727920666f72206e6f6e657869737460008201527f656e7420746f6b656e0000000000000000000000000000000000000000000000602082015250565b7f45524337323155524953746f726167653a2055524920736574206f66206e6f6e60008201527f6578697374656e7420746f6b656e000000000000000000000000000000000000602082015250565b7f546f6b656e496420686173206e6f74206265656e206d696e7465642079657421600082015250565b7f227d000000000000000000000000000000000000000000000000000000000000600082015250565b7f4552433732313a206d696e7420746f20746865207a65726f2061646472657373600082015250565b7f45524337323155524953746f726167653a2055524920717565727920666f722060008201527f6e6f6e6578697374656e7420746f6b656e000000000000000000000000000000602082015250565b7f4552433732313a20617070726f76656420717565727920666f72206e6f6e657860008201527f697374656e7420746f6b656e0000000000000000000000000000000000000000602082015250565b7f4f776e61626c653a2063616c6c6572206973206e6f7420746865206f776e6572600082015250565b7f4552433732313a207472616e73666572206f6620746f6b656e2074686174206960008201527f73206e6f74206f776e0000000000000000000000000000000000000000000000602082015250565b7f3c73766720786d6c6e733d27687474703a2f2f7777772e77332e6f72672f323060008201527f30302f73766727206865696768743d2700000000000000000000000000000000602082015250565b7f4552433732314d657461646174613a2055524920717565727920666f72206e6f60008201527f6e6578697374656e7420746f6b656e0000000000000000000000000000000000602082015250565b7f4f6e6c7920565246436f6f7264696e61746f722063616e2066756c66696c6c00600082015250565b7f222c20226465736372697074696f6e223a22416e204e4654206261736564206f60008201527f6e2053564721222c202261747472696275746573223a22222c2022696d61676560208201527f223a220000000000000000000000000000000000000000000000000000000000604082015250565b7f4552433732313a20617070726f76616c20746f2063757272656e74206f776e6560008201527f7200000000000000000000000000000000000000000000000000000000000000602082015250565b7f646174613a6170706c69636174696f6e2f6a736f6e3b6261736536342c000000600082015250565b7f4552433732313a207472616e736665722063616c6c6572206973206e6f74206f60008201527f776e6572206e6f7220617070726f766564000000000000000000000000000000602082015250565b7f273e000000000000000000000000000000000000000000000000000000000000600082015250565b7f3c2f7376673e0000000000000000000000000000000000000000000000000000600082015250565b7f272077696474683d270000000000000000000000000000000000000000000000600082015250565b6151a6816146ca565b81146151b157600080fd5b50565b6151bd816146dc565b81146151c857600080fd5b50565b6151d4816146e8565b81146151df57600080fd5b50565b6151eb816146f2565b81146151f657600080fd5b50565b6152028161473e565b811461520d57600080fd5b5056fe4142434445464748494a4b4c4d4e4f505152535455565758595a6162636465666768696a6b6c6d6e6f707172737475767778797a303132333435363738392b2fa264697066735822122039e4e108bb5a22b1c6edfe837d4a68055d47e71a2641f6501d447662a06841b264736f6c63430008030033",
  "devdoc": {
    "kind": "dev",
    "methods": {
      "approve(address,uint256)": {
        "details": "See {IERC721-approve}."
      },
      "balanceOf(address)": {
        "details": "See {IERC721-balanceOf}."
      },
      "getApproved(uint256)": {
        "details": "See {IERC721-getApproved}."
      },
      "isApprovedForAll(address,address)": {
        "details": "See {IERC721-isApprovedForAll}."
      },
      "name()": {
        "details": "See {IERC721Metadata-name}."
      },
      "owner()": {
        "details": "Returns the address of the current owner."
      },
      "ownerOf(uint256)": {
        "details": "See {IERC721-ownerOf}."
      },
      "renounceOwnership()": {
        "details": "Leaves the contract without owner. It will not be possible to call `onlyOwner` functions anymore. Can only be called by the current owner. NOTE: Renouncing ownership will leave the contract without an owner, thereby removing any functionality that is only available to the owner."
      },
      "safeTransferFrom(address,address,uint256)": {
        "details": "See {IERC721-safeTransferFrom}."
      },
      "safeTransferFrom(address,address,uint256,bytes)": {
        "details": "See {IERC721-safeTransferFrom}."
      },
      "setApprovalForAll(address,bool)": {
        "details": "See {IERC721-setApprovalForAll}."
      },
      "supportsInterface(bytes4)": {
        "details": "See {IERC165-supportsInterface}."
      },
      "symbol()": {
        "details": "See {IERC721Metadata-symbol}."
      },
      "tokenURI(uint256)": {
        "details": "See {IERC721Metadata-tokenURI}."
      },
      "transferFrom(address,address,uint256)": {
        "details": "See {IERC721-transferFrom}."
      },
      "transferOwnership(address)": {
        "details": "Transfers ownership of the contract to a new account (`newOwner`). Can only be called by the current owner."
      }
    },
    "version": 1
  },
  "userdoc": {
    "kind": "user",
    "methods": {},
    "version": 1
  },
  "storageLayout": {
    "storage": [
      {
        "astId": 2124,
        "contract": "contracts/RandomSVG.sol:RandomSVG",
        "label": "_name",
        "offset": 0,
        "slot": "0",
        "type": "t_string_storage"
      },
      {
        "astId": 2126,
        "contract": "contracts/RandomSVG.sol:RandomSVG",
        "label": "_symbol",
        "offset": 0,
        "slot": "1",
        "type": "t_string_storage"
      },
      {
        "astId": 2130,
        "contract": "contracts/RandomSVG.sol:RandomSVG",
        "label": "_owners",
        "offset": 0,
        "slot": "2",
        "type": "t_mapping(t_uint256,t_address)"
      },
      {
        "astId": 2134,
        "contract": "contracts/RandomSVG.sol:RandomSVG",
        "label": "_balances",
        "offset": 0,
        "slot": "3",
        "type": "t_mapping(t_address,t_uint256)"
      },
      {
        "astId": 2138,
        "contract": "contracts/RandomSVG.sol:RandomSVG",
        "label": "_tokenApprovals",
        "offset": 0,
        "slot": "4",
        "type": "t_mapping(t_uint256,t_address)"
      },
      {
        "astId": 2144,
        "contract": "contracts/RandomSVG.sol:RandomSVG",
        "label": "_operatorApprovals",
        "offset": 0,
        "slot": "5",
        "type": "t_mapping(t_address,t_mapping(t_address,t_bool))"
      },
      {
        "astId": 3076,
        "contract": "contracts/RandomSVG.sol:RandomSVG",
        "label": "_tokenURIs",
        "offset": 0,
        "slot": "6",
        "type": "t_mapping(t_uint256,t_string_storage)"
      },
      {
        "astId": 196,
        "contract": "contracts/RandomSVG.sol:RandomSVG",
        "label": "nonces",
        "offset": 0,
        "slot": "7",
        "type": "t_mapping(t_bytes32,t_uint256)"
      },
      {
        "astId": 2001,
        "contract": "contracts/RandomSVG.sol:RandomSVG",
        "label": "_owner",
        "offset": 0,
        "slot": "8",
        "type": "t_address"
      },
      {
        "astId": 1163,
        "contract": "contracts/RandomSVG.sol:RandomSVG",
        "label": "tokenCounter",
        "offset": 0,
        "slot": "9",
        "type": "t_uint256"
      },
      {
        "astId": 1185,
        "contract": "contracts/RandomSVG.sol:RandomSVG",
        "label": "requestIdToSender",
        "offset": 0,
        "slot": "10",
        "type": "t_mapping(t_bytes32,t_address)"
      },
      {
        "astId": 1189,
        "contract": "contracts/RandomSVG.sol:RandomSVG",
        "label": "tokenIdToRandomNumber",
        "offset": 0,
        "slot": "11",
        "type": "t_mapping(t_uint256,t_uint256)"
      },
      {
        "astId": 1193,
        "contract": "contracts/RandomSVG.sol:RandomSVG",
        "label": "requestIdToTokenId",
        "offset": 0,
        "slot": "12",
        "type": "t_mapping(t_bytes32,t_uint256)"
      },
      {
        "astId": 1195,
        "contract": "contracts/RandomSVG.sol:RandomSVG",
        "label": "keyHash",
        "offset": 0,
        "slot": "13",
        "type": "t_bytes32"
      },
      {
        "astId": 1197,
        "contract": "contracts/RandomSVG.sol:RandomSVG",
        "label": "fee",
        "offset": 0,
        "slot": "14",
        "type": "t_uint256"
      },
      {
        "astId": 1199,
        "contract": "contracts/RandomSVG.sol:RandomSVG",
        "label": "maxNumberOfPaths",
        "offset": 0,
        "slot": "15",
        "type": "t_uint256"
      },
      {
        "astId": 1201,
        "contract": "contracts/RandomSVG.sol:RandomSVG",
        "label": "maxNumberOfPathCommands",
        "offset": 0,
        "slot": "16",
        "type": "t_uint256"
      },
      {
        "astId": 1203,
        "contract": "contracts/RandomSVG.sol:RandomSVG",
        "label": "size",
        "offset": 0,
        "slot": "17",
        "type": "t_uint256"
      },
      {
        "astId": 1206,
        "contract": "contracts/RandomSVG.sol:RandomSVG",
        "label": "pathCommands",
        "offset": 0,
        "slot": "18",
        "type": "t_array(t_string_storage)dyn_storage"
      },
      {
        "astId": 1209,
        "contract": "contracts/RandomSVG.sol:RandomSVG",
        "label": "colors",
        "offset": 0,
        "slot": "19",
        "type": "t_array(t_string_storage)dyn_storage"
      }
    ],
    "types": {
      "t_address": {
        "encoding": "inplace",
        "label": "address",
        "numberOfBytes": "20"
      },
      "t_array(t_string_storage)dyn_storage": {
        "base": "t_string_storage",
        "encoding": "dynamic_array",
        "label": "string[]",
        "numberOfBytes": "32"
      },
      "t_bool": {
        "encoding": "inplace",
        "label": "bool",
        "numberOfBytes": "1"
      },
      "t_bytes32": {
        "encoding": "inplace",
        "label": "bytes32",
        "numberOfBytes": "32"
      },
      "t_mapping(t_address,t_bool)": {
        "encoding": "mapping",
        "key": "t_address",
        "label": "mapping(address => bool)",
        "numberOfBytes": "32",
        "value": "t_bool"
      },
      "t_mapping(t_address,t_mapping(t_address,t_bool))": {
        "encoding": "mapping",
        "key": "t_address",
        "label": "mapping(address => mapping(address => bool))",
        "numberOfBytes": "32",
        "value": "t_mapping(t_address,t_bool)"
      },
      "t_mapping(t_address,t_uint256)": {
        "encoding": "mapping",
        "key": "t_address",
        "label": "mapping(address => uint256)",
        "numberOfBytes": "32",
        "value": "t_uint256"
      },
      "t_mapping(t_bytes32,t_address)": {
        "encoding": "mapping",
        "key": "t_bytes32",
        "label": "mapping(bytes32 => address)",
        "numberOfBytes": "32",
        "value": "t_address"
      },
      "t_mapping(t_bytes32,t_uint256)": {
        "encoding": "mapping",
        "key": "t_bytes32",
        "label": "mapping(bytes32 => uint256)",
        "numberOfBytes": "32",
        "value": "t_uint256"
      },
      "t_mapping(t_uint256,t_address)": {
        "encoding": "mapping",
        "key": "t_uint256",
        "label": "mapping(uint256 => address)",
        "numberOfBytes": "32",
        "value": "t_address"
      },
      "t_mapping(t_uint256,t_string_storage)": {
        "encoding": "mapping",
        "key": "t_uint256",
        "label": "mapping(uint256 => string)",
        "numberOfBytes": "32",
        "value": "t_string_storage"
      },
      "t_mapping(t_uint256,t_uint256)": {
        "encoding": "mapping",
        "key": "t_uint256",
        "label": "mapping(uint256 => uint256)",
        "numberOfBytes": "32",
        "value": "t_uint256"
      },
      "t_string_storage": {
        "encoding": "bytes",
        "label": "string",
        "numberOfBytes": "32"
      },
      "t_uint256": {
        "encoding": "inplace",
        "label": "uint256",
        "numberOfBytes": "32"
      }
    }
  }
}